{
  "_format": "hh-sol-artifact-1",
  "contractName": "VeilTix",
  "sourceName": "contracts/veiltix.sol",
  "abi": [
    {
      "inputs": [],
      "stateMutability": "nonpayable",
      "type": "constructor"
    },
    {
      "inputs": [
        {
          "internalType": "address",
          "name": "sender",
          "type": "address"
        },
        {
          "internalType": "uint256",
          "name": "tokenId",
          "type": "uint256"
        },
        {
          "internalType": "address",
          "name": "owner",
          "type": "address"
        }
      ],
      "name": "ERC721IncorrectOwner",
      "type": "error"
    },
    {
      "inputs": [
        {
          "internalType": "address",
          "name": "operator",
          "type": "address"
        },
        {
          "internalType": "uint256",
          "name": "tokenId",
          "type": "uint256"
        }
      ],
      "name": "ERC721InsufficientApproval",
      "type": "error"
    },
    {
      "inputs": [
        {
          "internalType": "address",
          "name": "approver",
          "type": "address"
        }
      ],
      "name": "ERC721InvalidApprover",
      "type": "error"
    },
    {
      "inputs": [
        {
          "internalType": "address",
          "name": "operator",
          "type": "address"
        }
      ],
      "name": "ERC721InvalidOperator",
      "type": "error"
    },
    {
      "inputs": [
        {
          "internalType": "address",
          "name": "owner",
          "type": "address"
        }
      ],
      "name": "ERC721InvalidOwner",
      "type": "error"
    },
    {
      "inputs": [
        {
          "internalType": "address",
          "name": "receiver",
          "type": "address"
        }
      ],
      "name": "ERC721InvalidReceiver",
      "type": "error"
    },
    {
      "inputs": [
        {
          "internalType": "address",
          "name": "sender",
          "type": "address"
        }
      ],
      "name": "ERC721InvalidSender",
      "type": "error"
    },
    {
      "inputs": [
        {
          "internalType": "uint256",
          "name": "tokenId",
          "type": "uint256"
        }
      ],
      "name": "ERC721NonexistentToken",
      "type": "error"
    },
    {
      "inputs": [
        {
          "internalType": "address",
          "name": "owner",
          "type": "address"
        }
      ],
      "name": "OwnableInvalidOwner",
      "type": "error"
    },
    {
      "inputs": [
        {
          "internalType": "address",
          "name": "account",
          "type": "address"
        }
      ],
      "name": "OwnableUnauthorizedAccount",
      "type": "error"
    },
    {
      "anonymous": false,
      "inputs": [
        {
          "indexed": true,
          "internalType": "address",
          "name": "owner",
          "type": "address"
        },
        {
          "indexed": true,
          "internalType": "address",
          "name": "approved",
          "type": "address"
        },
        {
          "indexed": true,
          "internalType": "uint256",
          "name": "tokenId",
          "type": "uint256"
        }
      ],
      "name": "Approval",
      "type": "event"
    },
    {
      "anonymous": false,
      "inputs": [
        {
          "indexed": true,
          "internalType": "address",
          "name": "owner",
          "type": "address"
        },
        {
          "indexed": true,
          "internalType": "address",
          "name": "operator",
          "type": "address"
        },
        {
          "indexed": false,
          "internalType": "bool",
          "name": "approved",
          "type": "bool"
        }
      ],
      "name": "ApprovalForAll",
      "type": "event"
    },
    {
      "anonymous": false,
      "inputs": [
        {
          "indexed": true,
          "internalType": "uint256",
          "name": "eventId",
          "type": "uint256"
        },
        {
          "indexed": true,
          "internalType": "address",
          "name": "organizer",
          "type": "address"
        },
        {
          "indexed": false,
          "internalType": "string",
          "name": "name",
          "type": "string"
        },
        {
          "indexed": false,
          "internalType": "string",
          "name": "image",
          "type": "string"
        },
        {
          "indexed": false,
          "internalType": "string",
          "name": "location",
          "type": "string"
        },
        {
          "indexed": false,
          "internalType": "string",
          "name": "description",
          "type": "string"
        },
        {
          "indexed": false,
          "internalType": "uint256",
          "name": "time",
          "type": "uint256"
        },
        {
          "indexed": false,
          "internalType": "uint256[]",
          "name": "tierPrices",
          "type": "uint256[]"
        },
        {
          "indexed": false,
          "internalType": "uint256[]",
          "name": "tierMaxSupplies",
          "type": "uint256[]"
        }
      ],
      "name": "EventCreated",
      "type": "event"
    },
    {
      "anonymous": false,
      "inputs": [
        {
          "indexed": true,
          "internalType": "uint256",
          "name": "listingId",
          "type": "uint256"
        }
      ],
      "name": "ListingCancelled",
      "type": "event"
    },
    {
      "anonymous": false,
      "inputs": [
        {
          "indexed": true,
          "internalType": "uint256",
          "name": "listingId",
          "type": "uint256"
        },
        {
          "indexed": true,
          "internalType": "uint256",
          "name": "tokenId",
          "type": "uint256"
        },
        {
          "indexed": true,
          "internalType": "address",
          "name": "buyer",
          "type": "address"
        },
        {
          "indexed": false,
          "internalType": "uint256",
          "name": "price",
          "type": "uint256"
        }
      ],
      "name": "ListingSold",
      "type": "event"
    },
    {
      "anonymous": false,
      "inputs": [
        {
          "indexed": true,
          "internalType": "address",
          "name": "previousOwner",
          "type": "address"
        },
        {
          "indexed": true,
          "internalType": "address",
          "name": "newOwner",
          "type": "address"
        }
      ],
      "name": "OwnershipTransferred",
      "type": "event"
    },
    {
      "anonymous": false,
      "inputs": [
        {
          "indexed": true,
          "internalType": "uint256",
          "name": "tokenId",
          "type": "uint256"
        }
      ],
      "name": "TicketCheckedIn",
      "type": "event"
    },
    {
      "anonymous": false,
      "inputs": [
        {
          "indexed": true,
          "internalType": "uint256",
          "name": "listingId",
          "type": "uint256"
        },
        {
          "indexed": true,
          "internalType": "uint256",
          "name": "tokenId",
          "type": "uint256"
        },
        {
          "indexed": true,
          "internalType": "address",
          "name": "seller",
          "type": "address"
        },
        {
          "indexed": false,
          "internalType": "uint256",
          "name": "price",
          "type": "uint256"
        }
      ],
      "name": "TicketListed",
      "type": "event"
    },
    {
      "anonymous": false,
      "inputs": [
        {
          "indexed": true,
          "internalType": "uint256",
          "name": "tokenId",
          "type": "uint256"
        },
        {
          "indexed": true,
          "internalType": "uint256",
          "name": "eventId",
          "type": "uint256"
        },
        {
          "indexed": true,
          "internalType": "address",
          "name": "buyer",
          "type": "address"
        },
        {
          "indexed": false,
          "internalType": "uint8",
          "name": "ticketType",
          "type": "uint8"
        }
      ],
      "name": "TicketPurchased",
      "type": "event"
    },
    {
      "anonymous": false,
      "inputs": [
        {
          "indexed": true,
          "internalType": "address",
          "name": "from",
          "type": "address"
        },
        {
          "indexed": true,
          "internalType": "address",
          "name": "to",
          "type": "address"
        },
        {
          "indexed": true,
          "internalType": "uint256",
          "name": "tokenId",
          "type": "uint256"
        }
      ],
      "name": "Transfer",
      "type": "event"
    },
    {
      "inputs": [],
      "name": "accumulatedFees",
      "outputs": [
        {
          "internalType": "uint256",
          "name": "",
          "type": "uint256"
        }
      ],
      "stateMutability": "view",
      "type": "function"
    },
    {
      "inputs": [
        {
          "internalType": "address",
          "name": "to",
          "type": "address"
        },
        {
          "internalType": "uint256",
          "name": "tokenId",
          "type": "uint256"
        }
      ],
      "name": "approve",
      "outputs": [],
      "stateMutability": "nonpayable",
      "type": "function"
    },
    {
      "inputs": [
        {
          "internalType": "address",
          "name": "owner",
          "type": "address"
        }
      ],
      "name": "balanceOf",
      "outputs": [
        {
          "internalType": "uint256",
          "name": "",
          "type": "uint256"
        }
      ],
      "stateMutability": "view",
      "type": "function"
    },
    {
      "inputs": [
        {
          "internalType": "uint256",
          "name": "listingId",
          "type": "uint256"
        }
      ],
      "name": "buyListedTicket",
      "outputs": [],
      "stateMutability": "payable",
      "type": "function"
    },
    {
      "inputs": [
        {
          "internalType": "uint256",
          "name": "eventId",
          "type": "uint256"
        },
        {
          "internalType": "uint8",
          "name": "ticketType",
          "type": "uint8"
        }
      ],
      "name": "buyTicket",
      "outputs": [],
      "stateMutability": "payable",
      "type": "function"
    },
    {
      "inputs": [
        {
          "internalType": "uint256",
          "name": "eventId",
          "type": "uint256"
        }
      ],
      "name": "cancelEvent",
      "outputs": [],
      "stateMutability": "nonpayable",
      "type": "function"
    },
    {
      "inputs": [
        {
          "internalType": "uint256",
          "name": "listingId",
          "type": "uint256"
        }
      ],
      "name": "cancelListing",
      "outputs": [],
      "stateMutability": "nonpayable",
      "type": "function"
    },
    {
      "inputs": [
        {
          "internalType": "uint256",
          "name": "tokenId",
          "type": "uint256"
        }
      ],
      "name": "checkInTicket",
      "outputs": [],
      "stateMutability": "nonpayable",
      "type": "function"
    },
    {
      "inputs": [
        {
          "internalType": "string",
          "name": "name",
          "type": "string"
        },
        {
          "internalType": "string",
          "name": "image",
          "type": "string"
        },
        {
          "internalType": "string",
          "name": "location",
          "type": "string"
        },
        {
          "internalType": "string",
          "name": "description",
          "type": "string"
        },
        {
          "internalType": "uint256",
          "name": "time",
          "type": "uint256"
        },
        {
          "internalType": "uint256[]",
          "name": "tierPrices",
          "type": "uint256[]"
        },
        {
          "internalType": "uint256[]",
          "name": "tierMaxSupplies",
          "type": "uint256[]"
        },
        {
          "internalType": "bool",
          "name": "transferable",
          "type": "bool"
        },
        {
          "internalType": "bool",
          "name": "refundable",
          "type": "bool"
        },
        {
          "internalType": "uint256",
          "name": "refundDeadline",
          "type": "uint256"
        },
        {
          "internalType": "uint256",
          "name": "maxPerUser",
          "type": "uint256"
        }
      ],
      "name": "createEvent",
      "outputs": [],
      "stateMutability": "nonpayable",
      "type": "function"
    },
    {
      "inputs": [
        {
          "internalType": "uint256",
          "name": "",
          "type": "uint256"
        }
      ],
      "name": "eventRules",
      "outputs": [
        {
          "internalType": "bool",
          "name": "transferable",
          "type": "bool"
        },
        {
          "internalType": "bool",
          "name": "refundable",
          "type": "bool"
        },
        {
          "internalType": "uint256",
          "name": "refundDeadline",
          "type": "uint256"
        },
        {
          "internalType": "uint256",
          "name": "maxPerUser",
          "type": "uint256"
        }
      ],
      "stateMutability": "view",
      "type": "function"
    },
    {
      "inputs": [
        {
          "internalType": "uint256",
          "name": "",
          "type": "uint256"
        }
      ],
      "name": "eventTierCount",
      "outputs": [
        {
          "internalType": "uint8",
          "name": "",
          "type": "uint8"
        }
      ],
      "stateMutability": "view",
      "type": "function"
    },
    {
      "inputs": [
        {
          "internalType": "uint256",
          "name": "",
          "type": "uint256"
        },
        {
          "internalType": "uint8",
          "name": "",
          "type": "uint8"
        }
      ],
      "name": "eventTiers",
      "outputs": [
        {
          "internalType": "uint256",
          "name": "price",
          "type": "uint256"
        },
        {
          "internalType": "uint256",
          "name": "maxSupply",
          "type": "uint256"
        },
        {
          "internalType": "uint256",
          "name": "sold",
          "type": "uint256"
        }
      ],
      "stateMutability": "view",
      "type": "function"
    },
    {
      "inputs": [
        {
          "internalType": "uint256",
          "name": "",
          "type": "uint256"
        }
      ],
      "name": "events",
      "outputs": [
        {
          "internalType": "address",
          "name": "organizer",
          "type": "address"
        },
        {
          "internalType": "string",
          "name": "name",
          "type": "string"
        },
        {
          "internalType": "string",
          "name": "image",
          "type": "string"
        },
        {
          "internalType": "string",
          "name": "location",
          "type": "string"
        },
        {
          "internalType": "string",
          "name": "description",
          "type": "string"
        },
        {
          "internalType": "uint256",
          "name": "time",
          "type": "uint256"
        },
        {
          "internalType": "uint256",
          "name": "totalTickets",
          "type": "uint256"
        },
        {
          "internalType": "uint256",
          "name": "soldTickets",
          "type": "uint256"
        },
        {
          "internalType": "uint256",
          "name": "price",
          "type": "uint256"
        },
        {
          "internalType": "bool",
          "name": "isActive",
          "type": "bool"
        }
      ],
      "stateMutability": "view",
      "type": "function"
    },
    {
      "inputs": [
        {
          "internalType": "uint256",
          "name": "tokenId",
          "type": "uint256"
        }
      ],
      "name": "getApproved",
      "outputs": [
        {
          "internalType": "address",
          "name": "",
          "type": "address"
        }
      ],
      "stateMutability": "view",
      "type": "function"
    },
    {
      "inputs": [
        {
          "internalType": "uint256",
          "name": "eventId",
          "type": "uint256"
        }
      ],
      "name": "getEvent",
      "outputs": [
        {
          "components": [
            {
              "internalType": "address",
              "name": "organizer",
              "type": "address"
            },
            {
              "internalType": "string",
              "name": "name",
              "type": "string"
            },
            {
              "internalType": "string",
              "name": "image",
              "type": "string"
            },
            {
              "internalType": "string",
              "name": "location",
              "type": "string"
            },
            {
              "internalType": "string",
              "name": "description",
              "type": "string"
            },
            {
              "internalType": "uint256",
              "name": "time",
              "type": "uint256"
            },
            {
              "internalType": "uint256",
              "name": "totalTickets",
              "type": "uint256"
            },
            {
              "internalType": "uint256",
              "name": "soldTickets",
              "type": "uint256"
            },
            {
              "internalType": "uint256",
              "name": "price",
              "type": "uint256"
            },
            {
              "internalType": "bool",
              "name": "isActive",
              "type": "bool"
            }
          ],
          "internalType": "struct VeilTix.Event",
          "name": "",
          "type": "tuple"
        }
      ],
      "stateMutability": "view",
      "type": "function"
    },
    {
      "inputs": [
        {
          "internalType": "uint256",
          "name": "eventId",
          "type": "uint256"
        }
      ],
      "name": "getEventStats",
      "outputs": [
        {
          "internalType": "uint256",
          "name": "sold",
          "type": "uint256"
        },
        {
          "internalType": "uint256",
          "name": "total",
          "type": "uint256"
        },
        {
          "internalType": "uint256",
          "name": "revenue",
          "type": "uint256"
        }
      ],
      "stateMutability": "view",
      "type": "function"
    },
    {
      "inputs": [
        {
          "internalType": "uint256",
          "name": "listingId",
          "type": "uint256"
        }
      ],
      "name": "getListing",
      "outputs": [
        {
          "components": [
            {
              "internalType": "uint256",
              "name": "tokenId",
              "type": "uint256"
            },
            {
              "internalType": "address",
              "name": "seller",
              "type": "address"
            },
            {
              "internalType": "uint256",
              "name": "price",
              "type": "uint256"
            },
            {
              "internalType": "bool",
              "name": "active",
              "type": "bool"
            }
          ],
          "internalType": "struct VeilTix.Listing",
          "name": "",
          "type": "tuple"
        }
      ],
      "stateMutability": "view",
      "type": "function"
    },
    {
      "inputs": [
        {
          "internalType": "uint256",
          "name": "tokenId",
          "type": "uint256"
        }
      ],
      "name": "getTicket",
      "outputs": [
        {
          "components": [
            {
              "internalType": "uint256",
              "name": "eventId",
              "type": "uint256"
            },
            {
              "internalType": "uint8",
              "name": "ticketType",
              "type": "uint8"
            },
            {
              "internalType": "bool",
              "name": "isUsed",
              "type": "bool"
            }
          ],
          "internalType": "struct VeilTix.Ticket",
          "name": "",
          "type": "tuple"
        }
      ],
      "stateMutability": "view",
      "type": "function"
    },
    {
      "inputs": [
        {
          "internalType": "address",
          "name": "owner",
          "type": "address"
        },
        {
          "internalType": "address",
          "name": "operator",
          "type": "address"
        }
      ],
      "name": "isApprovedForAll",
      "outputs": [
        {
          "internalType": "bool",
          "name": "",
          "type": "bool"
        }
      ],
      "stateMutability": "view",
      "type": "function"
    },
    {
      "inputs": [
        {
          "internalType": "uint256",
          "name": "tokenId",
          "type": "uint256"
        },
        {
          "internalType": "uint256",
          "name": "price",
          "type": "uint256"
        }
      ],
      "name": "listTicket",
      "outputs": [],
      "stateMutability": "nonpayable",
      "type": "function"
    },
    {
      "inputs": [
        {
          "internalType": "uint256",
          "name": "",
          "type": "uint256"
        }
      ],
      "name": "listings",
      "outputs": [
        {
          "internalType": "uint256",
          "name": "tokenId",
          "type": "uint256"
        },
        {
          "internalType": "address",
          "name": "seller",
          "type": "address"
        },
        {
          "internalType": "uint256",
          "name": "price",
          "type": "uint256"
        },
        {
          "internalType": "bool",
          "name": "active",
          "type": "bool"
        }
      ],
      "stateMutability": "view",
      "type": "function"
    },
    {
      "inputs": [
        {
          "internalType": "uint256",
          "name": "tokenId",
          "type": "uint256"
        }
      ],
      "name": "markTicketUsed",
      "outputs": [],
      "stateMutability": "nonpayable",
      "type": "function"
    },
    {
      "inputs": [],
      "name": "marketFeeBps",
      "outputs": [
        {
          "internalType": "uint256",
          "name": "",
          "type": "uint256"
        }
      ],
      "stateMutability": "view",
      "type": "function"
    },
    {
      "inputs": [],
      "name": "name",
      "outputs": [
        {
          "internalType": "string",
          "name": "",
          "type": "string"
        }
      ],
      "stateMutability": "view",
      "type": "function"
    },
    {
      "inputs": [],
      "name": "nextEventId",
      "outputs": [
        {
          "internalType": "uint256",
          "name": "",
          "type": "uint256"
        }
      ],
      "stateMutability": "view",
      "type": "function"
    },
    {
      "inputs": [],
      "name": "nextListingId",
      "outputs": [
        {
          "internalType": "uint256",
          "name": "",
          "type": "uint256"
        }
      ],
      "stateMutability": "view",
      "type": "function"
    },
    {
      "inputs": [],
      "name": "nextTokenId",
      "outputs": [
        {
          "internalType": "uint256",
          "name": "",
          "type": "uint256"
        }
      ],
      "stateMutability": "view",
      "type": "function"
    },
    {
      "inputs": [],
      "name": "owner",
      "outputs": [
        {
          "internalType": "address",
          "name": "",
          "type": "address"
        }
      ],
      "stateMutability": "view",
      "type": "function"
    },
    {
      "inputs": [
        {
          "internalType": "uint256",
          "name": "tokenId",
          "type": "uint256"
        }
      ],
      "name": "ownerOf",
      "outputs": [
        {
          "internalType": "address",
          "name": "",
          "type": "address"
        }
      ],
      "stateMutability": "view",
      "type": "function"
    },
    {
      "inputs": [
        {
          "internalType": "uint256",
          "name": "tokenId",
          "type": "uint256"
        }
      ],
      "name": "refundTicket",
      "outputs": [],
      "stateMutability": "nonpayable",
      "type": "function"
    },
    {
      "inputs": [],
      "name": "renounceOwnership",
      "outputs": [],
      "stateMutability": "nonpayable",
      "type": "function"
    },
    {
      "inputs": [],
      "name": "royaltyBps",
      "outputs": [
        {
          "internalType": "uint256",
          "name": "",
          "type": "uint256"
        }
      ],
      "stateMutability": "view",
      "type": "function"
    },
    {
      "inputs": [
        {
          "internalType": "address",
          "name": "from",
          "type": "address"
        },
        {
          "internalType": "address",
          "name": "to",
          "type": "address"
        },
        {
          "internalType": "uint256",
          "name": "tokenId",
          "type": "uint256"
        }
      ],
      "name": "safeTransferFrom",
      "outputs": [],
      "stateMutability": "nonpayable",
      "type": "function"
    },
    {
      "inputs": [
        {
          "internalType": "address",
          "name": "from",
          "type": "address"
        },
        {
          "internalType": "address",
          "name": "to",
          "type": "address"
        },
        {
          "internalType": "uint256",
          "name": "tokenId",
          "type": "uint256"
        },
        {
          "internalType": "bytes",
          "name": "data",
          "type": "bytes"
        }
      ],
      "name": "safeTransferFrom",
      "outputs": [],
      "stateMutability": "nonpayable",
      "type": "function"
    },
    {
      "inputs": [
        {
          "internalType": "address",
          "name": "operator",
          "type": "address"
        },
        {
          "internalType": "bool",
          "name": "approved",
          "type": "bool"
        }
      ],
      "name": "setApprovalForAll",
      "outputs": [],
      "stateMutability": "nonpayable",
      "type": "function"
    },
    {
      "inputs": [
        {
          "internalType": "uint256",
          "name": "bps",
          "type": "uint256"
        }
      ],
      "name": "setMarketFeeBps",
      "outputs": [],
      "stateMutability": "nonpayable",
      "type": "function"
    },
    {
      "inputs": [
        {
          "internalType": "uint256",
          "name": "bps",
          "type": "uint256"
        }
      ],
      "name": "setRoyaltyBps",
      "outputs": [],
      "stateMutability": "nonpayable",
      "type": "function"
    },
    {
      "inputs": [
        {
          "internalType": "address",
          "name": "_verifier",
          "type": "address"
        }
      ],
      "name": "setVerifier",
      "outputs": [],
      "stateMutability": "nonpayable",
      "type": "function"
    },
    {
      "inputs": [
        {
          "internalType": "bytes4",
          "name": "interfaceId",
          "type": "bytes4"
        }
      ],
      "name": "supportsInterface",
      "outputs": [
        {
          "internalType": "bool",
          "name": "",
          "type": "bool"
        }
      ],
      "stateMutability": "view",
      "type": "function"
    },
    {
      "inputs": [],
      "name": "symbol",
      "outputs": [
        {
          "internalType": "string",
          "name": "",
          "type": "string"
        }
      ],
      "stateMutability": "view",
      "type": "function"
    },
    {
      "inputs": [
        {
          "internalType": "uint256",
          "name": "",
          "type": "uint256"
        }
      ],
      "name": "tickets",
      "outputs": [
        {
          "internalType": "uint256",
          "name": "eventId",
          "type": "uint256"
        },
        {
          "internalType": "uint8",
          "name": "ticketType",
          "type": "uint8"
        },
        {
          "internalType": "bool",
          "name": "isUsed",
          "type": "bool"
        }
      ],
      "stateMutability": "view",
      "type": "function"
    },
    {
      "inputs": [
        {
          "internalType": "address",
          "name": "",
          "type": "address"
        },
        {
          "internalType": "uint256",
          "name": "",
          "type": "uint256"
        }
      ],
      "name": "ticketsBought",
      "outputs": [
        {
          "internalType": "uint256",
          "name": "",
          "type": "uint256"
        }
      ],
      "stateMutability": "view",
      "type": "function"
    },
    {
      "inputs": [
        {
          "internalType": "uint256",
          "name": "",
          "type": "uint256"
        }
      ],
      "name": "tokenListing",
      "outputs": [
        {
          "internalType": "uint256",
          "name": "",
          "type": "uint256"
        }
      ],
      "stateMutability": "view",
      "type": "function"
    },
    {
      "inputs": [
        {
          "internalType": "uint256",
          "name": "tokenId",
          "type": "uint256"
        }
      ],
      "name": "tokenURI",
      "outputs": [
        {
          "internalType": "string",
          "name": "",
          "type": "string"
        }
      ],
      "stateMutability": "view",
      "type": "function"
    },
    {
      "inputs": [
        {
          "internalType": "address",
          "name": "from",
          "type": "address"
        },
        {
          "internalType": "address",
          "name": "to",
          "type": "address"
        },
        {
          "internalType": "uint256",
          "name": "tokenId",
          "type": "uint256"
        }
      ],
      "name": "transferFrom",
      "outputs": [],
      "stateMutability": "nonpayable",
      "type": "function"
    },
    {
      "inputs": [
        {
          "internalType": "address",
          "name": "newOwner",
          "type": "address"
        }
      ],
      "name": "transferOwnership",
      "outputs": [],
      "stateMutability": "nonpayable",
      "type": "function"
    },
    {
      "inputs": [
        {
          "internalType": "address",
          "name": "to",
          "type": "address"
        },
        {
          "internalType": "uint256",
          "name": "tokenId",
          "type": "uint256"
        }
      ],
      "name": "transferTicket",
      "outputs": [],
      "stateMutability": "nonpayable",
      "type": "function"
    },
    {
      "inputs": [],
      "name": "verifier",
      "outputs": [
        {
          "internalType": "address",
          "name": "",
          "type": "address"
        }
      ],
      "stateMutability": "view",
      "type": "function"
    },
    {
      "inputs": [],
      "name": "withdrawFees",
      "outputs": [],
      "stateMutability": "nonpayable",
      "type": "function"
    }
  ],
  "bytecode": "0x60806040523461037a57604080519081016001600160401b03811182821017610290576040908152600e82526d15995a5b151a5e08151a58dad95d60921b602083015280519081016001600160401b038111828210176102905760405260038152620aca8b60eb1b602082015281516001600160401b038111610290575f54600181811c91168015610370575b602082101461027257601f811161030e575b50602092601f82116001146102af57928192935f926102a4575b50508160011b915f199060031b1c1916175f555b80516001600160401b03811161029057600154600181811c91168015610286575b602082101461027257601f811161020f575b50602091601f82116001146101af579181925f926101a4575b50508160011b915f199060031b1c1916176001555b33156101915760068054336001600160a01b03198216811790925560405191906001600160a01b03167f8be0079c531659141344cd1fd0a4f28419497f9722a3daafe3b4186f6b6457e05f80a36101f4600b5560fa600c55613863908161037f8239f35b631e4fbdf760e01b5f525f60045260245ffd5b015190505f80610118565b601f1982169260015f52805f20915f5b8581106101f7575083600195106101df575b505050811b0160015561012d565b01515f1960f88460031b161c191690555f80806101d1565b919260206001819286850151815501940192016101bf565b60015f527fb10e2d527612073b26eecdfd717e6a320cf44b4afac2b0732d9fcbe2b7fa0cf6601f830160051c81019160208410610268575b601f0160051c01905b81811061025d57506100ff565b5f8155600101610250565b9091508190610247565b634e487b7160e01b5f52602260045260245ffd5b90607f16906100ed565b634e487b7160e01b5f52604160045260245ffd5b015190505f806100b8565b601f198216935f8052805f20915f5b8681106102f657508360019596106102de575b505050811b015f556100cc565b01515f1960f88460031b161c191690555f80806102d1565b919260206001819286850151815501940192016102be565b5f80527f290decd9548b62a8d60345a988386fc84ba6bc95484008f6362f93160ef3e563601f830160051c81019160208410610366575b601f0160051c01905b81811061035b575061009e565b5f815560010161034e565b9091508190610345565b90607f169061008c565b5f80fdfe6080806040526004361015610012575f80fd5b5f3560e01c90816301ffc9a714612c255750806306fdde0314612b83578063081812fc14612b47578063095ea7b314612a5d5780630b7914301461296e578063107a274a146128c5578063166cc944146128985780631f72d8311461283f57806323b872dd1461282857806325a19f04146127d15780632b7ac3f3146127a9578063305a67a8146126d4578063305a905a146124c05780633f5c3e87146124a35780633f69babd1461242357806342842e0e146123f4578063476343ee146123ad5780634d07899a14611a4257806350248853146117f157806350b44712146117ac57806351958a56146116d85780635437988d14611695578063587f5ed7146116785780636352211e146116485780636c07e3e6146116045780636c27c138146115875780636d1884e0146113d357806370a0823114611382578063715018a61461132757806375774100146110c457806375794a3c146110a75780637dc379fa146110265780638da5cb5b14610ffe57806395d89b4114610f205780639f9d903a14610f03578063a22cb46514610e46578063aaccf1ec14610e29578063aade5b7814610d28578063ae81548514610cd5578063b88d4fde14610c68578063c63adb2b14610c4b578063c87b56dd14610876578063d33d16571461084c578063de74e57b146107f3578063e4104eaf1461079b578063e985e9c514610744578063ea8dc8d014610314578063f2c030ec146102c15763f2fde38b14610237575f80fd5b346102bd5760203660031901126102bd57610250612cb4565b6102586132f5565b6001600160a01b031680156102aa57600680546001600160a01b0319811683179091556001600160a01b03167f8be0079c531659141344cd1fd0a4f28419497f9722a3daafe3b4186f6b6457e05f80a3005b631e4fbdf760e01b5f525f60045260245ffd5b5f80fd5b346102bd5760203660031901126102bd576004355f526012602052608060405f20805490600260018201549101549060ff604051938181161515855260081c161515602084015260408301526060820152f35b61031d36612f3b565b90805f52600e60205260405f20815f52601260205260405f2060ff6009830154161561070e57825f52601060205260ff8060405f2054169416938410156106d357825f52600f60205260405f20845f5260205260405f2090600282019182546001820154111561069e5754341061066857335f52601360205260405f20845f52602052600260405f2054910154111561063257600854916103bd8361317b565b6008556020916040516103d08482612d6a565b5f8152331561061f576001600160a01b036103eb863361331c565b1661060c57333b6104f5575b505f808093819361045c8a8960ff8060018e60118e6040519261041984612d33565b835280830197885260408301968c88528c525260408a2090518155019351161660ff1983541617825551151561ff00825491151560081b169061ff001916179055565b338352601387526040832089845287526040832061047a815461317b565b90556007820161048a815461317b565b9055610496815461317b565b90555481906001600160a01b031634156104eb575b3491f1156104e0577f5ad6e24b4867a8dd8d3f520a4d0f51f161bd4dc858987595f628bedb6a81ba50906040519485523394a4005b6040513d5f823e3d90fd5b6108fc91506104ab565b8361053391604098979695985180938192630a85bd0160e11b83523360048401525f6024840152886044840152608060648401526084830190612c90565b03815f335af15f91816105cc575b5061059557863d1561058d573d9061055882612e65565b916105666040519384612d6a565b82523d5f8284013e5b8151918261058a57633250574960e11b5f523360045260245ffd5b01fd5b60609061056f565b949593949293926001600160e01b03191663757a42ff60e11b016105b9575f6103f7565b633250574960e11b5f523360045260245ffd5b9091508781813d8311610605575b6105e48183612d6a565b810103126102bd57516001600160e01b0319811681036102bd579088610541565b503d6105da565b6339e3563760e11b5f525f60045260245ffd5b633250574960e11b5f525f60045260245ffd5b60405162461bcd60e51b815260206004820152600e60248201526d131a5b5a5d08195e18d95959195960921b6044820152606490fd5b60405162461bcd60e51b815260206004820152600e60248201526d09cdee840cadcdeeaced0408aa8960931b6044820152606490fd5b60405162461bcd60e51b815260206004820152600d60248201526c151a595c881cdbdb19081bdd5d609a1b6044820152606490fd5b60405162461bcd60e51b8152602060048201526013602482015272496e76616c6964207469636b6574207479706560681b6044820152606490fd5b60405162461bcd60e51b815260206004820152600e60248201526d4576656e7420696e61637469766560901b6044820152606490fd5b346102bd5760403660031901126102bd5761075d612cb4565b610765612cca565b9060018060a01b03165f52600560205260405f209060018060a01b03165f52602052602060ff60405f2054166040519015158152f35b346102bd5760203660031901126102bd576004356107b76132f5565b6101f481116107c557600c55005b60405162461bcd60e51b81526020600482015260066024820152654d617820352560d01b6044820152606490fd5b346102bd5760203660031901126102bd576004355f526014602052608060405f2080549060018060a01b036001820154169060ff6003600283015492015416916040519384526020840152604083015215156060820152f35b346102bd5760203660031901126102bd576004355f526015602052602060405f2054604051908152f35b346102bd5760203660031901126102bd576004355f818152600260205260409020546001600160a01b031615610c0657805f52601160205260405f2080545f52600e60205260405f2090600282016108ce8154612ce0565b15610beb5761090b61091961091f926040519283917468747470733a2f2f697066732e696f2f697066732f60581b60208401526035830190613269565b03601f198101835282612d6a565b9361356b565b9160018082019201549060ff61093681841661356b565b9260081c1615610bc55760405161094e604082612d6a565b6004815263155cd95960e21b6020820152925b604051958695717b226e616d65223a225665696c546978202360701b602088015280516020819201603289015e8601603281016201016960ed1b90526035016109aa9083613269565b7f222c226465736372697074696f6e223a224e4654205469636b657420666f722081526020016109da9083613269565b6a11161134b6b0b3b2911d1160a91b81528151918290602001600b83015e016f222c2261747472696275746573223a5b60801b600b820152601b81017f7b2274726169745f74797065223a224576656e74222c2276616c7565223a22009052603a01610a4591613269565b62089f4b60ea1b81527f7b2274726169745f74797065223a224c6f636174696f6e222c2276616c756522600380830191909152611d1160f11b6023830152610a939260259092019101613269565b62089f4b60ea1b81527f7b2274726169745f74797065223a225469636b65742054797065222c2276616c6003820152643ab2911d1160d91b60238201528151918290602001602883015e0162089f4b60ea1b6028820152602b81017f7b2274726169745f74797065223a22537461747573222c2276616c7565223a22905281516020819301604b83015e61227d60f01b9101604b810191909152615d7d60f01b604d82015203602f81018252610b4c90604f0182612d6a565b610b55906136d8565b6040518091602082017f646174613a6170706c69636174696f6e2f6a736f6e3b6261736536342c000000905280516020819201603d84015e8101603d81015f905203603d01601f1981018252610bab9082612d6a565b60405180916020825260208201610bc191612c90565b0390f35b604051610bd3604082612d6a565b600581526415985b1a5960da1b602082015292610961565b5061091f604051610bfd602082612d6a565b5f81529361356b565b60405162461bcd60e51b815260206004820152601860248201527f4552433732313a20696e76616c696420746f6b656e20494400000000000000006044820152606490fd5b346102bd575f3660031901126102bd576020600b54604051908152f35b346102bd5760803660031901126102bd57610c81612cb4565b610c89612cca565b90604435606435926001600160401b0384116102bd57366023850112156102bd57610cc1610cd3943690602481600401359101612e80565b92610ccd838383612f5b565b33613435565b005b346102bd57610ce336612f3b565b905f52600f60205260ff60405f2091165f5260205260405f208054610bc160026001840154930154604051938493846040919493926060820195825260208201520152565b346102bd5760203660031901126102bd57600435805f52601160205260405f20545f52600e60205260018060a01b0360405f20541633148015610e15575b15610ddf575f81815260026020526040902054610d8d906001600160a01b031615156131f1565b805f526011602052600160405f20016101008154610db160ff8260081c161561322e565b61ff0019161790557f56c73f395ba81ced6e85b15972ebec37c63c8ad3ffada001d131f59b495c30bb5f80a2005b60405162461bcd60e51b815260206004820152600e60248201526d139bdd08185d5d1a1bdc9a5e995960921b6044820152606490fd5b50600a546001600160a01b03163314610d66565b346102bd575f3660031901126102bd576020600954604051908152f35b346102bd5760403660031901126102bd57610e5f612cb4565b60243590811515908183036102bd573315610ef0576001600160a01b0316918215610edd57610eaf90335f52600560205260405f20845f5260205260405f209060ff801983541691151516179055565b6040519081527f17307eab39ab6107e8899845ad3d59bd9653f200f220920489ca2b5937696c3160203392a3005b82630b61174360e31b5f5260045260245ffd5b63a9fbf51f60e01b5f525f60045260245ffd5b346102bd575f3660031901126102bd576020600754604051908152f35b346102bd575f3660031901126102bd576040515f600154610f4081612ce0565b8084529060018116908115610fda5750600114610f7c575b610bc183610f6881850382612d6a565b604051918291602083526020830190612c90565b60015f9081527fb10e2d527612073b26eecdfd717e6a320cf44b4afac2b0732d9fcbe2b7fa0cf6939250905b808210610fc057509091508101602001610f68610f58565b919260018160209254838588010152019101909291610fa8565b60ff191660208086019190915291151560051b84019091019150610f689050610f58565b346102bd575f3660031901126102bd576006546040516001600160a01b039091168152602090f35b346102bd5760203660031901126102bd575f6040805161104581612d33565b82815282602082015201526004355f526011602052606060405f2060405161106c81612d33565b60ff600183549384845201549181604060208301928286168452019360081c1615158352604051938452511660208301525115156040820152f35b346102bd575f3660031901126102bd576020600854604051908152f35b346102bd5760203660031901126102bd576004356110f46110e4826132d3565b6001600160a01b031633146130f6565b805f52601160205260405f20805490815f52600e602052815f52601260205260405f2060ff815460081c16156112f0576001015442116112ba57600101549061114360ff8360081c161561322e565b5f52600f60205260ff8060405f209216165f5260205260405f205490805f52601560205260405f205480611240575b505f818152600260205260409020546001600160a01b0316801590811561120d575b5f83815260026020526040812080546001600160a01b03191690558390827fddf252ad1be2c89b69c2b068fc378daa952ba7f163c4a11628f55a4df523b3ef8280a4506111fb575f808080858181156111f2575b3390f1156104e057005b506108fc6111e8565b637e27328960e01b5f5260045260245ffd5b5f83815260046020526040902080546001600160a01b0319169055805f52600360205260405f205f198154019055611194565b5f1981019081116112a657805f52601460205260ff600360405f20015416611278575b50805f5260156020525f604081205582611172565b805f526014602052600360405f200160ff1981541690555f51602061380e5f395f51905f525f80a282611263565b634e487b7160e01b5f52601160045260245ffd5b60405162461bcd60e51b815260206004820152600e60248201526d1499599d5b9908195e1c1a5c995960921b6044820152606490fd5b60405162461bcd60e51b815260206004820152600f60248201526e1499599d5b9908191a5cd8589b1959608a1b6044820152606490fd5b346102bd575f3660031901126102bd5761133f6132f5565b600680546001600160a01b031981169091555f906001600160a01b03167f8be0079c531659141344cd1fd0a4f28419497f9722a3daafe3b4186f6b6457e08280a3005b346102bd5760203660031901126102bd576001600160a01b036113a3612cb4565b1680156113c0575f526003602052602060405f2054604051908152f35b6322718ad960e21b5f525f60045260245ffd5b346102bd5760203660031901126102bd575f6101206040516113f481612d4e565b8281526060602082015260606040820152606080820152606060808201528260a08201528260c08201528260e08201528261010082015201526004355f52600e60205261016060405f206040519061144b82612d4e565b80546001600160a01b0316825261146460018201612d8b565b91602081019283528061147960028401612d8b565b926040820193845261148d60038201612d8b565b936060830194855261155f6114a460048401612d8b565b6080850190815261154c60058501549760a0870198895261153960068701549560c0890196875261152660ff600960078b01549a60e08d019b8c5261010060088201549d019c8d520154169a61012081019b15158c526040519e8f9e8f926020845260018060a01b039051166020840152519161014060408201520190612c90565b90518c8203601f190160608e0152612c90565b90518a8203601f190160808c0152612c90565b9051888203601f190160a08a0152612c90565b945160c08701525160e086015251610100850152516101208401525115156101408301520390f35b346102bd5760203660031901126102bd57600a54600435906001600160a01b031633036115d0575f81815260026020526040902054610d8d906001600160a01b031615156131f1565b60405162461bcd60e51b815260206004820152600c60248201526b2737ba103b32b934b334b2b960a11b6044820152606490fd5b346102bd5760403660031901126102bd576001600160a01b03611625612cb4565b165f52601360205260405f206024355f52602052602060405f2054604051908152f35b346102bd5760203660031901126102bd5760206116666004356132d3565b6040516001600160a01b039091168152f35b346102bd575f3660031901126102bd576020600d54604051908152f35b346102bd5760203660031901126102bd576116ae612cb4565b6116b66132f5565b600a80546001600160a01b0319166001600160a01b0392909216919091179055005b346102bd5760403660031901126102bd576116f1612cb4565b6024356117006110e4826132d3565b805f52601160205260405f20545f52601260205261172460ff60405f20541661312e565b805f52601560205260405f20549182611743575b610cd39250336133db565b5f1983019283116112a65782610cd3935f52601460205260ff600360405f2001541661177e575b50815f5260156020525f6040812055611738565b805f526014602052600360405f200160ff1981541690555f51602061380e5f395f51905f525f80a28361176a565b346102bd5760203660031901126102bd576004355f526011602052606060405f2060ff60018254920154604051928352818116602084015260081c1615156040820152f35b60203660031901126102bd57600435805f52601460205260405f206003810180549160ff831615611a0857805492611828846132d3565b6001830180549093916001600160a01b039182169116036119c357600201928354803410611987575f8080809361189a978a83526011602052604083205496612710611876600b54856130e3565b04998a9361189561271061188c600c54846130e3565b049c8d9261316e565b61316e565b60ff1990991690558a8352601560205260408320839055546001600160a01b0316956118c78b33896133db565b8252600e60205260408220546001600160a01b031682821561197e575bf1156104e0575f8080938193828215611975575bf1156104e05761190a90600d54613189565b600d558054803411611948575b5054916040519283527f60ec3cac3009bce760195c34d9669c81e34f1dbf3967d0a7baf3825cd78141d460203394a4005b5f808061195681943461316e565b81811561196c575b3390f1156104e05783611917565b506108fc61195e565b506108fc6118f8565b506108fc6118e4565b60405162461bcd60e51b8152602060048201526014602482015273125b9cdd59999a58da595b9d081c185e5b595b9d60621b6044820152606490fd5b60405162461bcd60e51b815260206004820152601c60248201527f53656c6c6572206e6f206c6f6e676572206f776e73207469636b6574000000006044820152606490fd5b60405162461bcd60e51b81526020600482015260126024820152714c697374696e67206e6f742061637469766560701b6044820152606490fd5b346102bd576101603660031901126102bd576004356001600160401b0381116102bd57611a73903690600401612eb6565b6024356001600160401b0381116102bd57611a92903690600401612eb6565b906044356001600160401b0381116102bd57611ab2903690600401612eb6565b916064356001600160401b0381116102bd57611ad2903690600401612eb6565b9160a4356001600160401b0381116102bd57611af2903690600401612ed4565b9160c4356001600160401b0381116102bd57611b12903690600401612ed4565b9460e4359485151586036102bd57610104359384151585036102bd57855180151590816123a1575b50156123655785518851036123205760075491611b568361317b565b6007555f935f19955f5b8951968c60ff831698891015611c1e5790611bd989611be093611b848f8390613196565b5160028c611b928585613196565b5160405193611ba085612d33565b84526020840190815260408401915f83525f52600f60205260405f20865f5260205260405f209351845551600184015551910155613196565b5190613189565b9688611bec828d613196565b5110611c07575b5060ff1660ff81146112a657600101611b60565b60ff919850611c16908b613196565b519790611bf3565b98908b969798508c92508a9060ff8851168a5f52601060205260ff60405f20911660ff1982541617905560405192611c5584612d4e565b33845260208401918a835286604086015287606086015288608086015260843560a086015260c08501525f60e08501526101008401526001610120840152895f52600e60205260405f209060018060a01b0360018060a01b03855116166001600160601b0360a01b835416178255518051906001600160401b0382116120b4578190611ce46001850154612ce0565b601f81116122d0575b50602090601f8311600114612263575f92612258575b50508160011b915f199060031b1c19161760018201555b60408301518051906001600160401b0382116120b4578190611d3f6002850154612ce0565b601f8111612208575b50602090601f831160011461219b575f92612190575b50508160011b915f199060031b1c19161760028201555b60608301518051906001600160401b0382116120b4578190611d9a6003850154612ce0565b601f8111612140575b50602090601f83116001146120d3575f926120c8575b50508160011b915f199060031b1c19161760038201555b60808301519283516001600160401b0381116120b4578b94611df56004850154612ce0565b601f811161205c575b50602090601f8311600114611fa457966002611f6f977f1f23edabcc3869eae688e58af5a9f5dca4dc76363807a479e2c93b1e0594833d9e9c97611eb9611f459f9b986009611f949f99611f859f98908a611f539b61012093611f619f5f92611f99575b50508160011b915f199060031b1c19161760048501555b60a0810151600585015560c0810151600685015560e0810151600785015561010081015160088501550151151591019060ff801983541691151516179055565b60405193611ec685612d18565b15158452602084019015158152611f27604085019161012435835260608601936101443585525f526012602052611f1060405f2096511515879060ff801983541691151516179055565b51855461ff00191690151560081b61ff0016178555565b516001840155519101556040519a8b9a60e08c5260e08c0190612c90565b908a820360208c0152612c90565b9088820360408a0152612c90565b908682036060880152612c90565b90608435608086015284820360a08601526131be565b82810360c084015233966131be565b0390a3005b015190505f80611e62565b90600485015f52805f20915f5b601f19851681106120415750611f6f977f1f23edabcc3869eae688e58af5a9f5dca4dc76363807a479e2c93b1e0594833d9e9c97611eb9611f459f9b94986009611f949f99611f859f989060018b61012093611f619f60029b611f539f601f19811610612029575b505050811b016004850155611e79565b01515f1960f88460031b161c191690555f8080612019565b8183015184558f985060019093019260209283019201611fb1565b90919293949550600485015f5260205f20601f840160051c8101602085106120ad575b908e979695949392915b601f830160051c8201811061209f575050611dfe565b5f81558f9850600101612089565b508061207f565b634e487b7160e01b5f52604160045260245ffd5b015190508d80611db9565b9250600384015f52805f20905f935b601f1984168510612125576001945083601f1981161061210d575b505050811b016003820155611dd0565b01515f1960f88460031b161c191690558d80806120fd565b818101518355602094850194600190930192909101906120e2565b909150600384015f5260205f20601f840160051c810160208510612189575b90849392915b601f830160051c8201811061217b575050611da3565b5f8155859450600101612165565b508061215f565b015190508d80611d5e565b9250600284015f52805f20905f935b601f19841685106121ed576001945083601f198116106121d5575b505050811b016002820155611d75565b01515f1960f88460031b161c191690558d80806121c5565b818101518355602094850194600190930192909101906121aa565b909150600284015f5260205f20601f840160051c810160208510612251575b90849392915b601f830160051c82018110612243575050611d48565b5f815585945060010161222d565b5080612227565b015190508d80611d03565b9250600184015f52805f20905f935b601f19841685106122b5576001945083601f1981161061229d575b505050811b016001820155611d1a565b01515f1960f88460031b161c191690558d808061228d565b81810151835560209485019460019093019290910190612272565b909150600184015f5260205f20601f840160051c810160208510612319575b90849392915b601f830160051c8201811061230b575050611ced565b5f81558594506001016122f5565b50806122ef565b60405162461bcd60e51b815260206004820152601760248201527f4d69736d617463686564207469657273206172726179730000000000000000006044820152606490fd5b60405162461bcd60e51b8152602060048201526014602482015273092dcecc2d8d2c840e8d2cae4e640d8cadccee8d60631b6044820152606490fd5b60ff9150111589611b3a565b346102bd575f3660031901126102bd576123c56132f5565b5f808080600d5481600d5560018060a01b03600654168282156123eb575bf1156104e057005b506108fc6123e3565b346102bd57610cd361240536612e2b565b9060405192612415602085612d6a565b5f8452610ccd838383612f5b565b346102bd5760203660031901126102bd576004355f818152600e60205260409020546001600160a01b0316330361246e575f908152600e60205260409020600901805460ff19169055005b60405162461bcd60e51b815260206004820152600d60248201526c2737ba1037b933b0b734bd32b960991b6044820152606490fd5b346102bd575f3660031901126102bd576020600c54604051908152f35b346102bd5760403660031901126102bd576024356004356124e36110e4826132d3565b811561269b57805f52601160205260405f20545f52601260205261250d60ff60405f20541661312e565b805f52601160205260ff600160405f20015460081c1661266057805f52601560205260405f20548061260f575b506009546125478161317b565b6009556125c960405161255981612d18565b83815260036020820133815260408301878152606084019160018352865f52601460205260405f209451855560018060a01b03905116600185019060018060a01b03166001600160601b0360a01b82541617905551600284015551151591019060ff801983541691151516179055565b600181018082116112a657825f52601560205260405f20556040519283527f8b84647ec667515d9ce59e74ab9bb64476ec404345ebb9dfc3ea275bb6d8ee9b60203394a4005b5f1981019081116112a657805f52601460205260ff600360405f200154161561253a57805f526014602052600360405f200160ff1981541690555f51602061380e5f395f51905f525f80a28261253a565b60405162461bcd60e51b8152602060048201526013602482015272151a58dad95d08185b1c9958591e481d5cd959606a1b6044820152606490fd5b60405162461bcd60e51b815260206004820152601160248201527005072696365206d757374206265203e203607c1b6044820152606490fd5b346102bd5760203660031901126102bd576004355f81815260146020526040902060018101546001600160a01b031633036127775760038101805460ff81161561273f5760ff19169055545f5260156020525f60408120555f51602061380e5f395f51905f525f80a2005b60405162461bcd60e51b815260206004820152601060248201526f416c726561647920696e61637469766560801b6044820152606490fd5b60405162461bcd60e51b815260206004820152600a6024820152692737ba1039b2b63632b960b11b6044820152606490fd5b346102bd575f3660031901126102bd57600a546040516001600160a01b039091168152602090f35b346102bd5760203660031901126102bd576004355f52600e60205260405f206007810154610bc161280b60086006850154940154836130e3565b604051938493846040919493926060820195825260208201520152565b346102bd57610cd361283936612e2b565b91612f5b565b346102bd5760203660031901126102bd5760043561285b6132f5565b6103e8811161286957600b55005b60405162461bcd60e51b81526020600482015260076024820152664d61782031302560c81b6044820152606490fd5b346102bd5760203660031901126102bd576004355f526010602052602060ff60405f205416604051908152f35b346102bd5760203660031901126102bd575f60606040516128e581612d18565b82815282602082015282604082015201526004355f526014602052608060405f2060405161291281612d18565b81549182825260018060a01b0360018201541660208301908152606060ff6003600285015494604087019586520154169301921515835260405193845260018060a01b0390511660208401525160408301525115156060820152f35b346102bd5760203660031901126102bd576004355f52600e60205261014060405f2060018060a01b03815416906129a760018201612d8b565b6129b360028301612d8b565b916129c060038201612d8b565b926129cd60048301612d8b565b93612a3b600584015495612a2d600686015493612a1f600788015496612a1160ff600960088c01549b0154169a6040519e8f9e8f9081528160208201520190612c90565b8c810360408e015290612c90565b908a820360608c0152612c90565b9088820360808a0152612c90565b9460a087015260c086015260e085015261010084015215156101208301520390f35b346102bd5760403660031901126102bd57612a76612cb4565b602435612a82816132d3565b33151580612b34575b80612b07575b612af45781906001600160a01b0384811691167f8c5be1e5ebec7d5bd14f71427d1e84f3dd0314c0f7b2291e5b200ac8c7c3b9255f80a45f90815260046020526040902080546001600160a01b0319166001600160a01b03909216919091179055005b63a9fbf51f60e01b5f523360045260245ffd5b506001600160a01b0381165f90815260056020908152604080832033845290915290205460ff1615612a91565b506001600160a01b038116331415612a8b565b346102bd5760203660031901126102bd57600435612b64816132d3565b505f526004602052602060018060a01b0360405f205416604051908152f35b346102bd575f3660031901126102bd576040515f5f54612ba281612ce0565b8084529060018116908115610fda5750600114612bc957610bc183610f6881850382612d6a565b5f8080527f290decd9548b62a8d60345a988386fc84ba6bc95484008f6362f93160ef3e563939250905b808210612c0b57509091508101602001610f68610f58565b919260018160209254838588010152019101909291612bf3565b346102bd5760203660031901126102bd576004359063ffffffff60e01b82168092036102bd576020916380ac58cd60e01b8114908115612c7f575b8115612c6e575b5015158152f35b6301ffc9a760e01b14905083612c67565b635b5e139f60e01b81149150612c60565b805180835260209291819084018484015e5f828201840152601f01601f1916010190565b600435906001600160a01b03821682036102bd57565b602435906001600160a01b03821682036102bd57565b90600182811c92168015612d0e575b6020831014612cfa57565b634e487b7160e01b5f52602260045260245ffd5b91607f1691612cef565b608081019081106001600160401b038211176120b457604052565b606081019081106001600160401b038211176120b457604052565b61014081019081106001600160401b038211176120b457604052565b90601f801991011681019081106001600160401b038211176120b457604052565b9060405191825f825492612d9e84612ce0565b8084529360018116908115612e095750600114612dc5575b50612dc392500383612d6a565b565b90505f9291925260205f20905f915b818310612ded575050906020612dc3928201015f612db6565b6020919350806001915483858901015201910190918492612dd4565b905060209250612dc394915060ff191682840152151560051b8201015f612db6565b60609060031901126102bd576004356001600160a01b03811681036102bd57906024356001600160a01b03811681036102bd579060443590565b6001600160401b0381116120b457601f01601f191660200190565b929192612e8c82612e65565b91612e9a6040519384612d6a565b8294818452818301116102bd578281602093845f960137010152565b9080601f830112156102bd57816020612ed193359101612e80565b90565b9080601f830112156102bd578135916001600160401b0383116120b4578260051b9060405193612f076020840186612d6a565b84526020808501928201019283116102bd57602001905b828210612f2b5750505090565b8135815260209182019101612f1e565b60409060031901126102bd576004359060243560ff811681036102bd5790565b6001600160a01b039091169190821561061f575f828152600260205260409020546001600160a01b03169282903315158061304e575b508461301b575b805f52600360205260405f2060018154019055815f52600260205260405f20816001600160601b0360a01b825416179055847fddf252ad1be2c89b69c2b068fc378daa952ba7f163c4a11628f55a4df523b3ef5f80a46001600160a01b031680830361300357505050565b6364283d7b60e01b5f5260045260245260445260645ffd5b5f82815260046020526040902080546001600160a01b0319169055845f52600360205260405f205f198154019055612f98565b90915080613092575b156130645782905f612f91565b828461307c57637e27328960e01b5f5260045260245ffd5b63177e802f60e01b5f523360045260245260445ffd5b5033841480156130c1575b8061305757505f838152600460205260409020546001600160a01b03163314613057565b505f84815260056020908152604080832033845290915290205460ff1661309d565b818102929181159184041417156112a657565b156130fd57565b60405162461bcd60e51b81526020600482015260096024820152682737ba1037bbb732b960b91b6044820152606490fd5b1561313557565b60405162461bcd60e51b8152602060048201526011602482015270151c985b9cd9995c88191a5cd8589b1959607a1b6044820152606490fd5b919082039182116112a657565b5f1981146112a65760010190565b919082018092116112a657565b80518210156131aa5760209160051b010190565b634e487b7160e01b5f52603260045260245ffd5b90602080835192838152019201905f5b8181106131db5750505090565b82518452602093840193909201916001016131ce565b156131f857565b60405162461bcd60e51b815260206004820152600e60248201526d125b9d985b1a59081d1a58dad95d60921b6044820152606490fd5b1561323557565b60405162461bcd60e51b815260206004820152600c60248201526b105b1c9958591e481d5cd95960a21b6044820152606490fd5b5f929181549161327883612ce0565b92600181169081156132c0575060011461329157505050565b90919293505f5260205f205f905b8382106132ac5750500190565b60018160209254848601520191019061329f565b60ff191683525050811515909102019150565b5f818152600260205260409020546001600160a01b03169081156111fb575090565b6006546001600160a01b0316330361330957565b63118cdaa760e01b5f523360045260245ffd5b5f828152600260205260409020546001600160a01b03169190826133a8575b6001600160a01b031680613390575b815f52600260205260405f20816001600160601b0360a01b825416179055827fddf252ad1be2c89b69c2b068fc378daa952ba7f163c4a11628f55a4df523b3ef5f80a490565b805f52600360205260405f206001815401905561334a565b5f82815260046020526040902080546001600160a01b0319169055825f52600360205260405f205f19815401905561333b565b919291906001600160a01b0381161561061f576001600160a01b039061340290859061331c565b16908161341c5783637e27328960e01b5f5260045260245ffd5b919290916001600160a01b031680830361300357505050565b823b613443575b5050505050565b604051630a85bd0160e11b81526001600160a01b03918216600482015291811660248301526044820193909352608060648201529116916020908290819061348f906084830190612c90565b03815f865af15f9181613526575b506134f257503d156134eb573d6134b381612e65565b906134c16040519283612d6a565b81523d5f602083013e5b805190816134e65782633250574960e11b5f5260045260245ffd5b602001fd5b60606134cb565b6001600160e01b03191663757a42ff60e11b0161351457505f8080808061343c565b633250574960e11b5f5260045260245ffd5b9091506020813d602011613563575b8161354260209383612d6a565b810103126102bd57516001600160e01b0319811681036102bd57905f61349d565b3d9150613535565b805f9172184f03e93ff9f4daa797ed6e38ed64bf6a1f0160401b8210156136b5575b806d04ee2d6d415b85acef8100000000600a92101561369a575b662386f26fc10000811015613686575b6305f5e100811015613675575b612710811015613666575b6064811015613658575b101561364d575b600a602160018401936135f285612e65565b946136006040519687612d6a565b80865261360f601f1991612e65565b013660208701378401015b5f1901916f181899199a1a9b1b9c1cb0b131b232b360811b8282061a835304801561364857600a909161361a565b505090565b6001909101906135e0565b6064600291049301926135d9565b612710600491049301926135cf565b6305f5e100600891049301926135c4565b662386f26fc10000601091049301926135b7565b6d04ee2d6d415b85acef8100000000602091049301926135a7565b506040915072184f03e93ff9f4daa797ed6e38ed64bf6a1f0160401b810461358d565b908151156137f7578151600281018091116112a65760039004600281901b91906001600160fe1b038116036112a657604051917f4142434445464748494a4b4c4d4e4f505152535455565758595a616263646566601f527f6768696a6b6c6d6e6f707172737475767778797a303132333435363738392b2f603f52602083018480518101602081018051915f82525b8089106137bb57506020959697509060039291525106806001146137a657600214613799575b50808452830101604052565b603d905f1901535f61378d565b50603d90815f1982015360011901535f61378d565b939760036004910198603f8a51818160121c165183538181600c1c16516001840153818160061c16516002840153165160038201530193613767565b9050604051613807602082612d6a565b5f81529056fe411aee90354c51b1b04cd563fcab2617142a9d50da19232d888547c8a1b7fd8aa26469706673582212205b31b62f47635757baeada5553647515488a3a9d8334b3808fcff5a154b3080a64736f6c634300081c0033",
  "linkReferences": {},
  "deployedLinkReferences": {}
}