{
  "_format": "hh-sol-artifact-1",
  "contractName": "VeilTix",
  "sourceName": "contracts/veiltix.sol",
  "abi": [
    {
      "inputs": [],
      "stateMutability": "nonpayable",
      "type": "constructor"
    },
    {
      "inputs": [
        {
          "internalType": "address",
          "name": "sender",
          "type": "address"
        },
        {
          "internalType": "uint256",
          "name": "tokenId",
          "type": "uint256"
        },
        {
          "internalType": "address",
          "name": "owner",
          "type": "address"
        }
      ],
      "name": "ERC721IncorrectOwner",
      "type": "error"
    },
    {
      "inputs": [
        {
          "internalType": "address",
          "name": "operator",
          "type": "address"
        },
        {
          "internalType": "uint256",
          "name": "tokenId",
          "type": "uint256"
        }
      ],
      "name": "ERC721InsufficientApproval",
      "type": "error"
    },
    {
      "inputs": [
        {
          "internalType": "address",
          "name": "approver",
          "type": "address"
        }
      ],
      "name": "ERC721InvalidApprover",
      "type": "error"
    },
    {
      "inputs": [
        {
          "internalType": "address",
          "name": "operator",
          "type": "address"
        }
      ],
      "name": "ERC721InvalidOperator",
      "type": "error"
    },
    {
      "inputs": [
        {
          "internalType": "address",
          "name": "owner",
          "type": "address"
        }
      ],
      "name": "ERC721InvalidOwner",
      "type": "error"
    },
    {
      "inputs": [
        {
          "internalType": "address",
          "name": "receiver",
          "type": "address"
        }
      ],
      "name": "ERC721InvalidReceiver",
      "type": "error"
    },
    {
      "inputs": [
        {
          "internalType": "address",
          "name": "sender",
          "type": "address"
        }
      ],
      "name": "ERC721InvalidSender",
      "type": "error"
    },
    {
      "inputs": [
        {
          "internalType": "uint256",
          "name": "tokenId",
          "type": "uint256"
        }
      ],
      "name": "ERC721NonexistentToken",
      "type": "error"
    },
    {
      "inputs": [
        {
          "internalType": "address",
          "name": "owner",
          "type": "address"
        }
      ],
      "name": "OwnableInvalidOwner",
      "type": "error"
    },
    {
      "inputs": [
        {
          "internalType": "address",
          "name": "account",
          "type": "address"
        }
      ],
      "name": "OwnableUnauthorizedAccount",
      "type": "error"
    },
    {
      "anonymous": false,
      "inputs": [
        {
          "indexed": true,
          "internalType": "address",
          "name": "owner",
          "type": "address"
        },
        {
          "indexed": true,
          "internalType": "address",
          "name": "approved",
          "type": "address"
        },
        {
          "indexed": true,
          "internalType": "uint256",
          "name": "tokenId",
          "type": "uint256"
        }
      ],
      "name": "Approval",
      "type": "event"
    },
    {
      "anonymous": false,
      "inputs": [
        {
          "indexed": true,
          "internalType": "address",
          "name": "owner",
          "type": "address"
        },
        {
          "indexed": true,
          "internalType": "address",
          "name": "operator",
          "type": "address"
        },
        {
          "indexed": false,
          "internalType": "bool",
          "name": "approved",
          "type": "bool"
        }
      ],
      "name": "ApprovalForAll",
      "type": "event"
    },
    {
      "anonymous": false,
      "inputs": [
        {
          "indexed": true,
          "internalType": "uint256",
          "name": "eventId",
          "type": "uint256"
        },
        {
          "indexed": true,
          "internalType": "address",
          "name": "organizer",
          "type": "address"
        },
        {
          "indexed": false,
          "internalType": "string",
          "name": "name",
          "type": "string"
        },
        {
          "indexed": false,
          "internalType": "string",
          "name": "image",
          "type": "string"
        },
        {
          "indexed": false,
          "internalType": "string",
          "name": "location",
          "type": "string"
        },
        {
          "indexed": false,
          "internalType": "string",
          "name": "description",
          "type": "string"
        },
        {
          "indexed": false,
          "internalType": "uint256",
          "name": "time",
          "type": "uint256"
        },
        {
          "indexed": false,
          "internalType": "uint256",
          "name": "totalTickets",
          "type": "uint256"
        },
        {
          "indexed": false,
          "internalType": "uint256",
          "name": "price",
          "type": "uint256"
        }
      ],
      "name": "EventCreated",
      "type": "event"
    },
    {
      "anonymous": false,
      "inputs": [
        {
          "indexed": true,
          "internalType": "uint256",
          "name": "listingId",
          "type": "uint256"
        }
      ],
      "name": "ListingCancelled",
      "type": "event"
    },
    {
      "anonymous": false,
      "inputs": [
        {
          "indexed": true,
          "internalType": "uint256",
          "name": "listingId",
          "type": "uint256"
        },
        {
          "indexed": true,
          "internalType": "uint256",
          "name": "tokenId",
          "type": "uint256"
        },
        {
          "indexed": true,
          "internalType": "address",
          "name": "buyer",
          "type": "address"
        },
        {
          "indexed": false,
          "internalType": "uint256",
          "name": "price",
          "type": "uint256"
        }
      ],
      "name": "ListingSold",
      "type": "event"
    },
    {
      "anonymous": false,
      "inputs": [
        {
          "indexed": true,
          "internalType": "address",
          "name": "previousOwner",
          "type": "address"
        },
        {
          "indexed": true,
          "internalType": "address",
          "name": "newOwner",
          "type": "address"
        }
      ],
      "name": "OwnershipTransferred",
      "type": "event"
    },
    {
      "anonymous": false,
      "inputs": [
        {
          "indexed": true,
          "internalType": "uint256",
          "name": "tokenId",
          "type": "uint256"
        }
      ],
      "name": "TicketCheckedIn",
      "type": "event"
    },
    {
      "anonymous": false,
      "inputs": [
        {
          "indexed": true,
          "internalType": "uint256",
          "name": "listingId",
          "type": "uint256"
        },
        {
          "indexed": true,
          "internalType": "uint256",
          "name": "tokenId",
          "type": "uint256"
        },
        {
          "indexed": true,
          "internalType": "address",
          "name": "seller",
          "type": "address"
        },
        {
          "indexed": false,
          "internalType": "uint256",
          "name": "price",
          "type": "uint256"
        }
      ],
      "name": "TicketListed",
      "type": "event"
    },
    {
      "anonymous": false,
      "inputs": [
        {
          "indexed": true,
          "internalType": "uint256",
          "name": "tokenId",
          "type": "uint256"
        },
        {
          "indexed": true,
          "internalType": "uint256",
          "name": "eventId",
          "type": "uint256"
        },
        {
          "indexed": true,
          "internalType": "address",
          "name": "buyer",
          "type": "address"
        },
        {
          "indexed": false,
          "internalType": "uint8",
          "name": "ticketType",
          "type": "uint8"
        }
      ],
      "name": "TicketPurchased",
      "type": "event"
    },
    {
      "anonymous": false,
      "inputs": [
        {
          "indexed": true,
          "internalType": "address",
          "name": "from",
          "type": "address"
        },
        {
          "indexed": true,
          "internalType": "address",
          "name": "to",
          "type": "address"
        },
        {
          "indexed": true,
          "internalType": "uint256",
          "name": "tokenId",
          "type": "uint256"
        }
      ],
      "name": "Transfer",
      "type": "event"
    },
    {
      "inputs": [],
      "name": "accumulatedFees",
      "outputs": [
        {
          "internalType": "uint256",
          "name": "",
          "type": "uint256"
        }
      ],
      "stateMutability": "view",
      "type": "function"
    },
    {
      "inputs": [
        {
          "internalType": "address",
          "name": "to",
          "type": "address"
        },
        {
          "internalType": "uint256",
          "name": "tokenId",
          "type": "uint256"
        }
      ],
      "name": "approve",
      "outputs": [],
      "stateMutability": "nonpayable",
      "type": "function"
    },
    {
      "inputs": [
        {
          "internalType": "address",
          "name": "owner",
          "type": "address"
        }
      ],
      "name": "balanceOf",
      "outputs": [
        {
          "internalType": "uint256",
          "name": "",
          "type": "uint256"
        }
      ],
      "stateMutability": "view",
      "type": "function"
    },
    {
      "inputs": [
        {
          "internalType": "uint256",
          "name": "listingId",
          "type": "uint256"
        }
      ],
      "name": "buyListedTicket",
      "outputs": [],
      "stateMutability": "payable",
      "type": "function"
    },
    {
      "inputs": [
        {
          "internalType": "uint256",
          "name": "eventId",
          "type": "uint256"
        },
        {
          "internalType": "uint8",
          "name": "ticketType",
          "type": "uint8"
        }
      ],
      "name": "buyTicket",
      "outputs": [],
      "stateMutability": "payable",
      "type": "function"
    },
    {
      "inputs": [
        {
          "internalType": "uint256",
          "name": "eventId",
          "type": "uint256"
        }
      ],
      "name": "cancelEvent",
      "outputs": [],
      "stateMutability": "nonpayable",
      "type": "function"
    },
    {
      "inputs": [
        {
          "internalType": "uint256",
          "name": "listingId",
          "type": "uint256"
        }
      ],
      "name": "cancelListing",
      "outputs": [],
      "stateMutability": "nonpayable",
      "type": "function"
    },
    {
      "inputs": [
        {
          "internalType": "uint256",
          "name": "tokenId",
          "type": "uint256"
        }
      ],
      "name": "checkInTicket",
      "outputs": [],
      "stateMutability": "nonpayable",
      "type": "function"
    },
    {
      "inputs": [
        {
          "internalType": "string",
          "name": "name",
          "type": "string"
        },
        {
          "internalType": "string",
          "name": "image",
          "type": "string"
        },
        {
          "internalType": "string",
          "name": "location",
          "type": "string"
        },
        {
          "internalType": "string",
          "name": "description",
          "type": "string"
        },
        {
          "internalType": "uint256",
          "name": "time",
          "type": "uint256"
        },
        {
          "internalType": "uint256",
          "name": "totalTickets",
          "type": "uint256"
        },
        {
          "internalType": "uint256",
          "name": "price",
          "type": "uint256"
        },
        {
          "internalType": "bool",
          "name": "transferable",
          "type": "bool"
        },
        {
          "internalType": "bool",
          "name": "refundable",
          "type": "bool"
        },
        {
          "internalType": "uint256",
          "name": "refundDeadline",
          "type": "uint256"
        },
        {
          "internalType": "uint256",
          "name": "maxPerUser",
          "type": "uint256"
        }
      ],
      "name": "createEvent",
      "outputs": [],
      "stateMutability": "nonpayable",
      "type": "function"
    },
    {
      "inputs": [
        {
          "internalType": "uint256",
          "name": "",
          "type": "uint256"
        }
      ],
      "name": "eventRules",
      "outputs": [
        {
          "internalType": "bool",
          "name": "transferable",
          "type": "bool"
        },
        {
          "internalType": "bool",
          "name": "refundable",
          "type": "bool"
        },
        {
          "internalType": "uint256",
          "name": "refundDeadline",
          "type": "uint256"
        },
        {
          "internalType": "uint256",
          "name": "maxPerUser",
          "type": "uint256"
        }
      ],
      "stateMutability": "view",
      "type": "function"
    },
    {
      "inputs": [
        {
          "internalType": "uint256",
          "name": "",
          "type": "uint256"
        }
      ],
      "name": "events",
      "outputs": [
        {
          "internalType": "address",
          "name": "organizer",
          "type": "address"
        },
        {
          "internalType": "string",
          "name": "name",
          "type": "string"
        },
        {
          "internalType": "string",
          "name": "image",
          "type": "string"
        },
        {
          "internalType": "string",
          "name": "location",
          "type": "string"
        },
        {
          "internalType": "string",
          "name": "description",
          "type": "string"
        },
        {
          "internalType": "uint256",
          "name": "time",
          "type": "uint256"
        },
        {
          "internalType": "uint256",
          "name": "totalTickets",
          "type": "uint256"
        },
        {
          "internalType": "uint256",
          "name": "soldTickets",
          "type": "uint256"
        },
        {
          "internalType": "uint256",
          "name": "price",
          "type": "uint256"
        },
        {
          "internalType": "bool",
          "name": "isActive",
          "type": "bool"
        }
      ],
      "stateMutability": "view",
      "type": "function"
    },
    {
      "inputs": [
        {
          "internalType": "uint256",
          "name": "tokenId",
          "type": "uint256"
        }
      ],
      "name": "getApproved",
      "outputs": [
        {
          "internalType": "address",
          "name": "",
          "type": "address"
        }
      ],
      "stateMutability": "view",
      "type": "function"
    },
    {
      "inputs": [
        {
          "internalType": "uint256",
          "name": "eventId",
          "type": "uint256"
        }
      ],
      "name": "getEvent",
      "outputs": [
        {
          "components": [
            {
              "internalType": "address",
              "name": "organizer",
              "type": "address"
            },
            {
              "internalType": "string",
              "name": "name",
              "type": "string"
            },
            {
              "internalType": "string",
              "name": "image",
              "type": "string"
            },
            {
              "internalType": "string",
              "name": "location",
              "type": "string"
            },
            {
              "internalType": "string",
              "name": "description",
              "type": "string"
            },
            {
              "internalType": "uint256",
              "name": "time",
              "type": "uint256"
            },
            {
              "internalType": "uint256",
              "name": "totalTickets",
              "type": "uint256"
            },
            {
              "internalType": "uint256",
              "name": "soldTickets",
              "type": "uint256"
            },
            {
              "internalType": "uint256",
              "name": "price",
              "type": "uint256"
            },
            {
              "internalType": "bool",
              "name": "isActive",
              "type": "bool"
            }
          ],
          "internalType": "struct VeilTix.Event",
          "name": "",
          "type": "tuple"
        }
      ],
      "stateMutability": "view",
      "type": "function"
    },
    {
      "inputs": [
        {
          "internalType": "uint256",
          "name": "eventId",
          "type": "uint256"
        }
      ],
      "name": "getEventStats",
      "outputs": [
        {
          "internalType": "uint256",
          "name": "sold",
          "type": "uint256"
        },
        {
          "internalType": "uint256",
          "name": "total",
          "type": "uint256"
        },
        {
          "internalType": "uint256",
          "name": "revenue",
          "type": "uint256"
        }
      ],
      "stateMutability": "view",
      "type": "function"
    },
    {
      "inputs": [
        {
          "internalType": "uint256",
          "name": "listingId",
          "type": "uint256"
        }
      ],
      "name": "getListing",
      "outputs": [
        {
          "components": [
            {
              "internalType": "uint256",
              "name": "tokenId",
              "type": "uint256"
            },
            {
              "internalType": "address",
              "name": "seller",
              "type": "address"
            },
            {
              "internalType": "uint256",
              "name": "price",
              "type": "uint256"
            },
            {
              "internalType": "bool",
              "name": "active",
              "type": "bool"
            }
          ],
          "internalType": "struct VeilTix.Listing",
          "name": "",
          "type": "tuple"
        }
      ],
      "stateMutability": "view",
      "type": "function"
    },
    {
      "inputs": [
        {
          "internalType": "uint256",
          "name": "tokenId",
          "type": "uint256"
        }
      ],
      "name": "getTicket",
      "outputs": [
        {
          "components": [
            {
              "internalType": "uint256",
              "name": "eventId",
              "type": "uint256"
            },
            {
              "internalType": "uint8",
              "name": "ticketType",
              "type": "uint8"
            },
            {
              "internalType": "bool",
              "name": "isUsed",
              "type": "bool"
            }
          ],
          "internalType": "struct VeilTix.Ticket",
          "name": "",
          "type": "tuple"
        }
      ],
      "stateMutability": "view",
      "type": "function"
    },
    {
      "inputs": [
        {
          "internalType": "address",
          "name": "owner",
          "type": "address"
        },
        {
          "internalType": "address",
          "name": "operator",
          "type": "address"
        }
      ],
      "name": "isApprovedForAll",
      "outputs": [
        {
          "internalType": "bool",
          "name": "",
          "type": "bool"
        }
      ],
      "stateMutability": "view",
      "type": "function"
    },
    {
      "inputs": [
        {
          "internalType": "uint256",
          "name": "tokenId",
          "type": "uint256"
        },
        {
          "internalType": "uint256",
          "name": "price",
          "type": "uint256"
        }
      ],
      "name": "listTicket",
      "outputs": [],
      "stateMutability": "nonpayable",
      "type": "function"
    },
    {
      "inputs": [
        {
          "internalType": "uint256",
          "name": "",
          "type": "uint256"
        }
      ],
      "name": "listings",
      "outputs": [
        {
          "internalType": "uint256",
          "name": "tokenId",
          "type": "uint256"
        },
        {
          "internalType": "address",
          "name": "seller",
          "type": "address"
        },
        {
          "internalType": "uint256",
          "name": "price",
          "type": "uint256"
        },
        {
          "internalType": "bool",
          "name": "active",
          "type": "bool"
        }
      ],
      "stateMutability": "view",
      "type": "function"
    },
    {
      "inputs": [
        {
          "internalType": "uint256",
          "name": "tokenId",
          "type": "uint256"
        }
      ],
      "name": "markTicketUsed",
      "outputs": [],
      "stateMutability": "nonpayable",
      "type": "function"
    },
    {
      "inputs": [],
      "name": "marketFeeBps",
      "outputs": [
        {
          "internalType": "uint256",
          "name": "",
          "type": "uint256"
        }
      ],
      "stateMutability": "view",
      "type": "function"
    },
    {
      "inputs": [],
      "name": "name",
      "outputs": [
        {
          "internalType": "string",
          "name": "",
          "type": "string"
        }
      ],
      "stateMutability": "view",
      "type": "function"
    },
    {
      "inputs": [],
      "name": "nextEventId",
      "outputs": [
        {
          "internalType": "uint256",
          "name": "",
          "type": "uint256"
        }
      ],
      "stateMutability": "view",
      "type": "function"
    },
    {
      "inputs": [],
      "name": "nextListingId",
      "outputs": [
        {
          "internalType": "uint256",
          "name": "",
          "type": "uint256"
        }
      ],
      "stateMutability": "view",
      "type": "function"
    },
    {
      "inputs": [],
      "name": "nextTokenId",
      "outputs": [
        {
          "internalType": "uint256",
          "name": "",
          "type": "uint256"
        }
      ],
      "stateMutability": "view",
      "type": "function"
    },
    {
      "inputs": [],
      "name": "owner",
      "outputs": [
        {
          "internalType": "address",
          "name": "",
          "type": "address"
        }
      ],
      "stateMutability": "view",
      "type": "function"
    },
    {
      "inputs": [
        {
          "internalType": "uint256",
          "name": "tokenId",
          "type": "uint256"
        }
      ],
      "name": "ownerOf",
      "outputs": [
        {
          "internalType": "address",
          "name": "",
          "type": "address"
        }
      ],
      "stateMutability": "view",
      "type": "function"
    },
    {
      "inputs": [
        {
          "internalType": "uint256",
          "name": "tokenId",
          "type": "uint256"
        }
      ],
      "name": "refundTicket",
      "outputs": [],
      "stateMutability": "nonpayable",
      "type": "function"
    },
    {
      "inputs": [],
      "name": "renounceOwnership",
      "outputs": [],
      "stateMutability": "nonpayable",
      "type": "function"
    },
    {
      "inputs": [],
      "name": "royaltyBps",
      "outputs": [
        {
          "internalType": "uint256",
          "name": "",
          "type": "uint256"
        }
      ],
      "stateMutability": "view",
      "type": "function"
    },
    {
      "inputs": [
        {
          "internalType": "address",
          "name": "from",
          "type": "address"
        },
        {
          "internalType": "address",
          "name": "to",
          "type": "address"
        },
        {
          "internalType": "uint256",
          "name": "tokenId",
          "type": "uint256"
        }
      ],
      "name": "safeTransferFrom",
      "outputs": [],
      "stateMutability": "nonpayable",
      "type": "function"
    },
    {
      "inputs": [
        {
          "internalType": "address",
          "name": "from",
          "type": "address"
        },
        {
          "internalType": "address",
          "name": "to",
          "type": "address"
        },
        {
          "internalType": "uint256",
          "name": "tokenId",
          "type": "uint256"
        },
        {
          "internalType": "bytes",
          "name": "data",
          "type": "bytes"
        }
      ],
      "name": "safeTransferFrom",
      "outputs": [],
      "stateMutability": "nonpayable",
      "type": "function"
    },
    {
      "inputs": [
        {
          "internalType": "address",
          "name": "operator",
          "type": "address"
        },
        {
          "internalType": "bool",
          "name": "approved",
          "type": "bool"
        }
      ],
      "name": "setApprovalForAll",
      "outputs": [],
      "stateMutability": "nonpayable",
      "type": "function"
    },
    {
      "inputs": [
        {
          "internalType": "uint256",
          "name": "bps",
          "type": "uint256"
        }
      ],
      "name": "setMarketFeeBps",
      "outputs": [],
      "stateMutability": "nonpayable",
      "type": "function"
    },
    {
      "inputs": [
        {
          "internalType": "uint256",
          "name": "bps",
          "type": "uint256"
        }
      ],
      "name": "setRoyaltyBps",
      "outputs": [],
      "stateMutability": "nonpayable",
      "type": "function"
    },
    {
      "inputs": [
        {
          "internalType": "address",
          "name": "_verifier",
          "type": "address"
        }
      ],
      "name": "setVerifier",
      "outputs": [],
      "stateMutability": "nonpayable",
      "type": "function"
    },
    {
      "inputs": [
        {
          "internalType": "bytes4",
          "name": "interfaceId",
          "type": "bytes4"
        }
      ],
      "name": "supportsInterface",
      "outputs": [
        {
          "internalType": "bool",
          "name": "",
          "type": "bool"
        }
      ],
      "stateMutability": "view",
      "type": "function"
    },
    {
      "inputs": [],
      "name": "symbol",
      "outputs": [
        {
          "internalType": "string",
          "name": "",
          "type": "string"
        }
      ],
      "stateMutability": "view",
      "type": "function"
    },
    {
      "inputs": [
        {
          "internalType": "uint256",
          "name": "",
          "type": "uint256"
        }
      ],
      "name": "tickets",
      "outputs": [
        {
          "internalType": "uint256",
          "name": "eventId",
          "type": "uint256"
        },
        {
          "internalType": "uint8",
          "name": "ticketType",
          "type": "uint8"
        },
        {
          "internalType": "bool",
          "name": "isUsed",
          "type": "bool"
        }
      ],
      "stateMutability": "view",
      "type": "function"
    },
    {
      "inputs": [
        {
          "internalType": "address",
          "name": "",
          "type": "address"
        },
        {
          "internalType": "uint256",
          "name": "",
          "type": "uint256"
        }
      ],
      "name": "ticketsBought",
      "outputs": [
        {
          "internalType": "uint256",
          "name": "",
          "type": "uint256"
        }
      ],
      "stateMutability": "view",
      "type": "function"
    },
    {
      "inputs": [
        {
          "internalType": "uint256",
          "name": "",
          "type": "uint256"
        }
      ],
      "name": "tokenListing",
      "outputs": [
        {
          "internalType": "uint256",
          "name": "",
          "type": "uint256"
        }
      ],
      "stateMutability": "view",
      "type": "function"
    },
    {
      "inputs": [
        {
          "internalType": "uint256",
          "name": "tokenId",
          "type": "uint256"
        }
      ],
      "name": "tokenURI",
      "outputs": [
        {
          "internalType": "string",
          "name": "",
          "type": "string"
        }
      ],
      "stateMutability": "view",
      "type": "function"
    },
    {
      "inputs": [
        {
          "internalType": "address",
          "name": "from",
          "type": "address"
        },
        {
          "internalType": "address",
          "name": "to",
          "type": "address"
        },
        {
          "internalType": "uint256",
          "name": "tokenId",
          "type": "uint256"
        }
      ],
      "name": "transferFrom",
      "outputs": [],
      "stateMutability": "nonpayable",
      "type": "function"
    },
    {
      "inputs": [
        {
          "internalType": "address",
          "name": "newOwner",
          "type": "address"
        }
      ],
      "name": "transferOwnership",
      "outputs": [],
      "stateMutability": "nonpayable",
      "type": "function"
    },
    {
      "inputs": [
        {
          "internalType": "address",
          "name": "to",
          "type": "address"
        },
        {
          "internalType": "uint256",
          "name": "tokenId",
          "type": "uint256"
        }
      ],
      "name": "transferTicket",
      "outputs": [],
      "stateMutability": "nonpayable",
      "type": "function"
    },
    {
      "inputs": [],
      "name": "verifier",
      "outputs": [
        {
          "internalType": "address",
          "name": "",
          "type": "address"
        }
      ],
      "stateMutability": "view",
      "type": "function"
    },
    {
      "inputs": [],
      "name": "withdrawFees",
      "outputs": [],
      "stateMutability": "nonpayable",
      "type": "function"
    }
  ],
  "bytecode": "0x60806040526101f4600b5560fa600c5534801561001b57600080fd5b50336040518060400160405280600e81526020016d15995a5b151a5e08151a58dad95d60921b815250604051806040016040528060038152602001620aca8b60eb1b815250816000908161006f91906101ad565b50600161007c82826101ad565b5050506001600160a01b0381166100ad57604051631e4fbdf760e01b81526000600482015260240160405180910390fd5b6100b6816100bc565b5061026b565b600680546001600160a01b038381166001600160a01b0319831681179093556040519116919082907f8be0079c531659141344cd1fd0a4f28419497f9722a3daafe3b4186f6b6457e090600090a35050565b634e487b7160e01b600052604160045260246000fd5b600181811c9082168061013857607f821691505b60208210810361015857634e487b7160e01b600052602260045260246000fd5b50919050565b601f8211156101a857806000526020600020601f840160051c810160208510156101855750805b601f840160051c820191505b818110156101a55760008155600101610191565b50505b505050565b81516001600160401b038111156101c6576101c661010e565b6101da816101d48454610124565b8461015e565b6020601f82116001811461020e57600083156101f65750848201515b600019600385901b1c1916600184901b1784556101a5565b600084815260208120601f198516915b8281101561023e578785015182556020948501946001909201910161021e565b508482101561025c5786840151600019600387901b60f8161c191681555b50505050600190811b01905550565b6136c08061027a6000396000f3fe6080604052600436106102885760003560e01c80636c07e3e61161015a578063aaccf1ec116100c1578063de74e57b1161007a578063de74e57b14610941578063e4104eaf146109ba578063e985e9c5146109da578063ea8dc8d0146109fa578063f2c030ec14610a0d578063f2fde38b14610a7757600080fd5b8063aaccf1ec14610888578063aade5b781461089e578063b88d4fde146108be578063c63adb2b146108de578063c87b56dd146108f4578063d33d16571461091457600080fd5b806375794a3c1161011357806375794a3c146107745780637dc379fa1461078a5780638da5cb5b1461081f57806395d89b411461083d5780639f9d903a14610852578063a22cb4651461086857600080fd5b80636c07e3e61461069a5780636c27c138146106d25780636d1884e0146106f257806370a082311461071f578063715018a61461073f578063757741001461075457600080fd5b8063305a67a8116101fe57806350248853116101b757806350248853146105b257806350b44712146105c557806351958a56146106245780635437988d14610644578063587f5ed7146106645780636352211e1461067a57600080fd5b8063305a67a8146104f9578063305a905a146105195780633f5c3e87146105395780633f69babd1461055d57806342842e0e1461057d578063476343ee1461059d57600080fd5b8063107a274a11610250578063107a274a146103745780631f72d8311461043e57806321a8c7241461045e57806323b872dd1461047e57806325a19f041461049e5780632b7ac3f3146104d957600080fd5b806301ffc9a71461028d57806306fdde03146102c2578063081812fc146102e4578063095ea7b31461031c5780630b7914301461033e575b600080fd5b34801561029957600080fd5b506102ad6102a8366004612db7565b610a97565b60405190151581526020015b60405180910390f35b3480156102ce57600080fd5b506102d7610ae9565b6040516102b99190612e24565b3480156102f057600080fd5b506103046102ff366004612e37565b610b7b565b6040516001600160a01b0390911681526020016102b9565b34801561032857600080fd5b5061033c610337366004612e6c565b610ba4565b005b34801561034a57600080fd5b5061035e610359366004612e37565b610bb3565b6040516102b99a99989796959493929190612e96565b34801561038057600080fd5b5061040061038f366004612e37565b604080516080808201835260008083526020808401829052838501829052606093840182905294815260128552839020835191820184528054825260018101546001600160a01b03169482019490945260028401549281019290925260039092015460ff1615159181019190915290565b6040516102b99190815181526020808301516001600160a01b0316908201526040808301519082015260609182015115159181019190915260800190565b34801561044a57600080fd5b5061033c610459366004612e37565b610e2e565b34801561046a57600080fd5b5061033c610479366004612fe7565b610e7c565b34801561048a57600080fd5b5061033c610499366004613101565b6110b3565b3480156104aa57600080fd5b506104be6104b9366004612e37565b61113e565b604080519384526020840192909252908201526060016102b9565b3480156104e557600080fd5b50600a54610304906001600160a01b031681565b34801561050557600080fd5b5061033c610514366004612e37565b611174565b34801561052557600080fd5b5061033c61053436600461313e565b61124a565b34801561054557600080fd5b5061054f600c5481565b6040519081526020016102b9565b34801561056957600080fd5b5061033c610578366004612e37565b6114d8565b34801561058957600080fd5b5061033c610598366004613101565b61154c565b3480156105a957600080fd5b5061033c61156c565b61033c6105c0366004612e37565b6115c1565b3480156105d157600080fd5b506106056105e0366004612e37565b600f602052600090815260409020805460019091015460ff8082169161010090041683565b6040805193845260ff90921660208401521515908201526060016102b9565b34801561063057600080fd5b5061033c61063f366004612e6c565b6118b2565b34801561065057600080fd5b5061033c61065f366004613160565b6119d5565b34801561067057600080fd5b5061054f600d5481565b34801561068657600080fd5b50610304610695366004612e37565b6119ff565b3480156106a657600080fd5b5061054f6106b5366004612e6c565b601160209081526000928352604080842090915290825290205481565b3480156106de57600080fd5b5061033c6106ed366004612e37565b611a0a565b3480156106fe57600080fd5b5061071261070d366004612e37565b611b20565b6040516102b9919061317b565b34801561072b57600080fd5b5061054f61073a366004613160565b611e34565b34801561074b57600080fd5b5061033c611e7c565b34801561076057600080fd5b5061033c61076f366004612e37565b611e90565b34801561078057600080fd5b5061054f60085481565b34801561079657600080fd5b506107f86107a5366004612e37565b604080516060808201835260008083526020808401829052928401819052938452600f82529282902082519384018352805484526001015460ff8082169285019290925261010090041615159082015290565b604080518251815260208084015160ff1690820152918101511515908201526060016102b9565b34801561082b57600080fd5b506006546001600160a01b0316610304565b34801561084957600080fd5b506102d761205a565b34801561085e57600080fd5b5061054f60075481565b34801561087457600080fd5b5061033c61088336600461324e565b612069565b34801561089457600080fd5b5061054f60095481565b3480156108aa57600080fd5b5061033c6108b9366004612e37565b612074565b3480156108ca57600080fd5b5061033c6108d9366004613281565b6121bd565b3480156108ea57600080fd5b5061054f600b5481565b34801561090057600080fd5b506102d761090f366004612e37565b6121d4565b34801561092057600080fd5b5061054f61092f366004612e37565b60136020526000908152604090205481565b34801561094d57600080fd5b5061099061095c366004612e37565b601260205260009081526040902080546001820154600283015460039093015491926001600160a01b039091169160ff1684565b604080519485526001600160a01b03909316602085015291830152151560608201526080016102b9565b3480156109c657600080fd5b5061033c6109d5366004612e37565b612249565b3480156109e657600080fd5b506102ad6109f53660046132fd565b612291565b61033c610a08366004613327565b6122bf565b348015610a1957600080fd5b50610a55610a28366004612e37565b60106020526000908152604090208054600182015460029092015460ff8083169361010090930416919084565b60408051941515855292151560208501529183015260608201526080016102b9565b348015610a8357600080fd5b5061033c610a92366004613160565b612527565b60006001600160e01b031982166380ac58cd60e01b1480610ac857506001600160e01b03198216635b5e139f60e01b145b80610ae357506301ffc9a760e01b6001600160e01b03198316145b92915050565b606060008054610af89061335d565b80601f0160208091040260200160405190810160405280929190818152602001828054610b249061335d565b8015610b715780601f10610b4657610100808354040283529160200191610b71565b820191906000526020600020905b815481529060010190602001808311610b5457829003601f168201915b5050505050905090565b6000610b8682612565565b506000828152600460205260409020546001600160a01b0316610ae3565b610baf82823361259e565b5050565b600e60205260009081526040902080546001820180546001600160a01b039092169291610bdf9061335d565b80601f0160208091040260200160405190810160405280929190818152602001828054610c0b9061335d565b8015610c585780601f10610c2d57610100808354040283529160200191610c58565b820191906000526020600020905b815481529060010190602001808311610c3b57829003601f168201915b505050505090806002018054610c6d9061335d565b80601f0160208091040260200160405190810160405280929190818152602001828054610c999061335d565b8015610ce65780601f10610cbb57610100808354040283529160200191610ce6565b820191906000526020600020905b815481529060010190602001808311610cc957829003601f168201915b505050505090806003018054610cfb9061335d565b80601f0160208091040260200160405190810160405280929190818152602001828054610d279061335d565b8015610d745780601f10610d4957610100808354040283529160200191610d74565b820191906000526020600020905b815481529060010190602001808311610d5757829003601f168201915b505050505090806004018054610d899061335d565b80601f0160208091040260200160405190810160405280929190818152602001828054610db59061335d565b8015610e025780601f10610dd757610100808354040283529160200191610e02565b820191906000526020600020905b815481529060010190602001808311610de557829003601f168201915b505050600584015460068501546007860154600887015460099097015495969295919450925060ff168a565b610e366125ab565b6103e8811115610e775760405162461bcd60e51b81526020600482015260076024820152664d61782031302560c81b60448201526064015b60405180910390fd5b600b55565b6007805460009182610e8d836133ad565b919050559050604051806101400160405280336001600160a01b031681526020018d81526020018c81526020018b81526020018a81526020018981526020018881526020016000815260200187815260200160011515815250600e600083815260200190815260200160002060008201518160000160006101000a8154816001600160a01b0302191690836001600160a01b031602179055506020820151816001019081610f3b919061340d565b5060408201516002820190610f50908261340d565b5060608201516003820190610f65908261340d565b5060808201516004820190610f7a908261340d565b5060a0820151816005015560c0820151816006015560e0820151816007015561010082015181600801556101208201518160090160006101000a81548160ff021916908315150217905550905050604051806080016040528086151581526020018515158152602001848152602001838152506010600083815260200190815260200160002060008201518160000160006101000a81548160ff02191690831515021790555060208201518160000160016101000a81548160ff0219169083151502179055506040820151816001015560608201518160020155905050336001600160a01b0316817f5c0b3d066ae05d5984729cc3bf66d8f0665ae59f18b18b5a2f2d8f5c230223d98e8e8e8e8e8e8e60405161109d97969594939291906134cc565b60405180910390a3505050505050505050505050565b6001600160a01b0382166110dd57604051633250574960e11b815260006004820152602401610e6e565b60006110ea8383336125d8565b9050836001600160a01b0316816001600160a01b031614611138576040516364283d7b60e01b81526001600160a01b0380861660048301526024820184905282166044820152606401610e6e565b50505050565b6000818152600e6020526040812060078101546006820154600883015491939092909161116b9085613539565b93959294505050565b600081815260126020526040902060018101546001600160a01b031633146111cb5760405162461bcd60e51b815260206004820152600a6024820152692737ba1039b2b63632b960b11b6044820152606401610e6e565b600381015460ff166112125760405162461bcd60e51b815260206004820152601060248201526f416c726561647920696e61637469766560801b6044820152606401610e6e565b60038101805460ff19169055805460009081526013602052604080822082905551839160008051602061366b83398151915291a25050565b33611254836119ff565b6001600160a01b03161461127a5760405162461bcd60e51b8152600401610e6e90613550565b600081116112be5760405162461bcd60e51b815260206004820152601160248201527005072696365206d757374206265203e203607c1b6044820152606401610e6e565b6000828152600f602090815260408083205480845260109092529091205460ff1661131f5760405162461bcd60e51b8152602060048201526011602482015270151c985b9cd9995c88191a5cd8589b1959607a1b6044820152606401610e6e565b6000838152600f6020526040902060010154610100900460ff161561137c5760405162461bcd60e51b8152602060048201526013602482015272151a58dad95d08185b1c9958591e481d5cd959606a1b6044820152606401610e6e565b60008381526013602052604090205480156113ec57600061139e600183613573565b60008181526012602052604090206003015490915060ff16156113ea57600081815260126020526040808220600301805460ff1916905551829160008051602061366b83398151915291a25b505b60098054600091826113fd836133ad565b9091555060408051608081018252878152336020808301918252828401898152600160608501818152600088815260129094529590922093518455915183820180546001600160a01b0319166001600160a01b039092169190911790559051600283015591516003909101805460ff1916911515919091179055909150611485908290613586565b60008681526013602090815260409182902092909255518581523391879184917f8b84647ec667515d9ce59e74ab9bb64476ec404345ebb9dfc3ea275bb6d8ee9b91015b60405180910390a45050505050565b6000818152600e602052604090205481906001600160a01b031633146115305760405162461bcd60e51b815260206004820152600d60248201526c2737ba1037b933b0b734bd32b960991b6044820152606401610e6e565b506000908152600e60205260409020600901805460ff19169055565b611567838383604051806020016040528060008152506121bd565b505050565b6115746125ab565b600d805460009091556006546001600160a01b03166001600160a01b03166108fc829081150290604051600060405180830381858888f19350505050158015610baf573d6000803e3d6000fd5b6000818152601260205260409020600381015460ff166116185760405162461bcd60e51b81526020600482015260126024820152714c697374696e67206e6f742061637469766560701b6044820152606401610e6e565b600181015481546001600160a01b0390911690611634906119ff565b6001600160a01b03161461168a5760405162461bcd60e51b815260206004820152601c60248201527f53656c6c6572206e6f206c6f6e676572206f776e73207469636b6574000000006044820152606401610e6e565b80600201543410156116d55760405162461bcd60e51b8152602060048201526014602482015273125b9cdd59999a58da595b9d081c185e5b595b9d60621b6044820152606401610e6e565b80546000818152600f6020526040812054600b546002850154919291612710916116fe91613539565b6117089190613599565b90506000612710600c5486600201546117219190613539565b61172b9190613599565b90506000818387600201546117409190613573565b61174a9190613573565b60038701805460ff1916905560008681526013602052604081205560018701549091506001600160a01b03166117818133886126d1565b6000858152600e60205260408082205490516001600160a01b039091169186156108fc02918791818181858888f193505050501580156117c5573d6000803e3d6000fd5b506040516001600160a01b0382169083156108fc029084906000818181858888f193505050501580156117fc573d6000803e3d6000fd5b5082600d600082825461180f9190613586565b9091555050600287015434111561185f57600287015433906108fc906118359034613573565b6040518115909202916000818181858888f1935050505015801561185d573d6000803e3d6000fd5b505b336001600160a01b031686897f60ec3cac3009bce760195c34d9669c81e34f1dbf3967d0a7baf3825cd78141d48a600201546040516118a091815260200190565b60405180910390a45050505050505050565b336118bc826119ff565b6001600160a01b0316146118e25760405162461bcd60e51b8152600401610e6e90613550565b6000818152600f60209081526040808320548084526010909252909120805460ff166119445760405162461bcd60e51b8152602060048201526011602482015270151c985b9cd9995c88191a5cd8589b1959607a1b6044820152606401610e6e565b60008381526013602052604090205480156119c3576000611966600183613573565b60008181526012602052604090206003015490915060ff16156119b257600081815260126020526040808220600301805460ff1916905551829160008051602061366b83398151915291a25b506000848152601360205260408120555b6119ce3386866126d1565b5050505050565b6119dd6125ab565b600a80546001600160a01b0319166001600160a01b0392909216919091179055565b6000610ae382612565565b600a546001600160a01b03163314611a535760405162461bcd60e51b815260206004820152600c60248201526b2737ba103b32b934b334b2b960a11b6044820152606401610e6e565b6000818152600260205260409020546001600160a01b0316611aa85760405162461bcd60e51b815260206004820152600e60248201526d125b9d985b1a59081d1a58dad95d60921b6044820152606401610e6e565b6000818152600f602052604090206001810154610100900460ff1615611ae05760405162461bcd60e51b8152600401610e6e906135bb565b60018101805461ff00191661010017905560405182907f56c73f395ba81ced6e85b15972ebec37c63c8ad3ffada001d131f59b495c30bb90600090a25050565b611b8160405180610140016040528060006001600160a01b0316815260200160608152602001606081526020016060815260200160608152602001600081526020016000815260200160008152602001600081526020016000151581525090565b6000828152600e60209081526040918290208251610140810190935280546001600160a01b031683526001810180549192840191611bbe9061335d565b80601f0160208091040260200160405190810160405280929190818152602001828054611bea9061335d565b8015611c375780601f10611c0c57610100808354040283529160200191611c37565b820191906000526020600020905b815481529060010190602001808311611c1a57829003601f168201915b50505050508152602001600282018054611c509061335d565b80601f0160208091040260200160405190810160405280929190818152602001828054611c7c9061335d565b8015611cc95780601f10611c9e57610100808354040283529160200191611cc9565b820191906000526020600020905b815481529060010190602001808311611cac57829003601f168201915b50505050508152602001600382018054611ce29061335d565b80601f0160208091040260200160405190810160405280929190818152602001828054611d0e9061335d565b8015611d5b5780601f10611d3057610100808354040283529160200191611d5b565b820191906000526020600020905b815481529060010190602001808311611d3e57829003601f168201915b50505050508152602001600482018054611d749061335d565b80601f0160208091040260200160405190810160405280929190818152602001828054611da09061335d565b8015611ded5780601f10611dc257610100808354040283529160200191611ded565b820191906000526020600020905b815481529060010190602001808311611dd057829003601f168201915b50505091835250506005820154602082015260068201546040820152600782015460608201526008820154608082015260099091015460ff16151560a09091015292915050565b60006001600160a01b038216611e60576040516322718ad960e21b815260006004820152602401610e6e565b506001600160a01b031660009081526003602052604090205490565b611e846125ab565b611e8e6000612781565b565b33611e9a826119ff565b6001600160a01b031614611ec05760405162461bcd60e51b8152600401610e6e90613550565b6000818152600f6020908152604080832080548452600e8352818420601090935292208054610100900460ff16611f2b5760405162461bcd60e51b815260206004820152600f60248201526e1499599d5b9908191a5cd8589b1959608a1b6044820152606401610e6e565b8060010154421115611f705760405162461bcd60e51b815260206004820152600e60248201526d1499599d5b9908195e1c1a5c995960921b6044820152606401610e6e565b6001830154610100900460ff1615611f9a5760405162461bcd60e51b8152600401610e6e906135bb565b6000848152601360205260409020548015612019576000611fbc600183613573565b60008181526012602052604090206003015490915060ff161561200857600081815260126020526040808220600301805460ff1916905551829160008051602061366b83398151915291a25b506000858152601360205260408120555b612022856127d3565b6008830154604051339180156108fc02916000818181858888f19350505050158015612052573d6000803e3d6000fd5b505050505050565b606060018054610af89061335d565b610baf33838361280e565b6000818152600f6020908152604080832054808452600e909252909120546001600160a01b03163314806120b25750600a546001600160a01b031633145b6120ef5760405162461bcd60e51b815260206004820152600e60248201526d139bdd08185d5d1a1bdc9a5e995960921b6044820152606401610e6e565b6000828152600260205260409020546001600160a01b03166121445760405162461bcd60e51b815260206004820152600e60248201526d125b9d985b1a59081d1a58dad95d60921b6044820152606401610e6e565b6000828152600f602052604090206001810154610100900460ff161561217c5760405162461bcd60e51b8152600401610e6e906135bb565b60018101805461ff00191661010017905560405183907f56c73f395ba81ced6e85b15972ebec37c63c8ad3ffada001d131f59b495c30bb90600090a2505050565b6121c88484846110b3565b611138848484846128ad565b60606121df82612565565b5060006121f760408051602081019091526000815290565b905060008151116122175760405180602001604052806000815250612242565b80612221846129cf565b6040516020016122329291906135e1565b6040516020818303038152906040525b9392505050565b6122516125ab565b6101f481111561228c5760405162461bcd60e51b81526020600482015260066024820152654d617820352560d01b6044820152606401610e6e565b600c55565b6001600160a01b03918216600090815260056020908152604080832093909416825291909152205460ff1690565b6000828152600e602090815260408083206010909252909120600982015460ff1661231d5760405162461bcd60e51b815260206004820152600e60248201526d4576656e7420696e61637469766560901b6044820152606401610e6e565b816006015482600701541061235f5760405162461bcd60e51b815260206004820152600860248201526714dbdb19081bdd5d60c21b6044820152606401610e6e565b81600801543410156123a45760405162461bcd60e51b815260206004820152600e60248201526d09cdee840cadcdeeaced0408aa8960931b6044820152606401610e6e565b6002810154336000908152601160209081526040808320888452909152902054106124025760405162461bcd60e51b815260206004820152600e60248201526d131a5b5a5d08195e18d95959195960921b6044820152606401610e6e565b6008805460009182612413836133ad565b9190505590506124233382612a63565b6040805160608101825286815260ff80871660208084019182526000848601818152878252600f83528682209551865592516001959095018054935115156101000261ffff19909416959094169490941791909117909155338252601181528282208883529052908120805491612499836133ad565b90915550506007830180549060006124b0836133ad565b909155505082546040516001600160a01b03909116903480156108fc02916000818181858888f193505050501580156124ed573d6000803e3d6000fd5b5060405160ff851681523390869083907f5ad6e24b4867a8dd8d3f520a4d0f51f161bd4dc858987595f628bedb6a81ba50906020016114c9565b61252f6125ab565b6001600160a01b03811661255957604051631e4fbdf760e01b815260006004820152602401610e6e565b61256281612781565b50565b6000818152600260205260408120546001600160a01b031680610ae357604051637e27328960e01b815260048101849052602401610e6e565b6115678383836001612a7d565b6006546001600160a01b03163314611e8e5760405163118cdaa760e01b8152336004820152602401610e6e565b6000828152600260205260408120546001600160a01b039081169083161561260557612605818486612b83565b6001600160a01b0381161561264357612622600085600080612a7d565b6001600160a01b038116600090815260036020526040902080546000190190555b6001600160a01b03851615612672576001600160a01b0385166000908152600360205260409020805460010190555b60008481526002602052604080822080546001600160a01b0319166001600160a01b0389811691821790925591518793918516917fddf252ad1be2c89b69c2b068fc378daa952ba7f163c4a11628f55a4df523b3ef91a4949350505050565b6001600160a01b0382166126fb57604051633250574960e11b815260006004820152602401610e6e565b6000612709838360006125d8565b90506001600160a01b03811661273557604051637e27328960e01b815260048101839052602401610e6e565b836001600160a01b0316816001600160a01b031614611138576040516364283d7b60e01b81526001600160a01b0380861660048301526024820184905282166044820152606401610e6e565b600680546001600160a01b038381166001600160a01b0319831681179093556040519116919082907f8be0079c531659141344cd1fd0a4f28419497f9722a3daafe3b4186f6b6457e090600090a35050565b60006127e260008360006125d8565b90506001600160a01b038116610baf57604051637e27328960e01b815260048101839052602401610e6e565b6001600160a01b03821661284057604051630b61174360e31b81526001600160a01b0383166004820152602401610e6e565b6001600160a01b03838116600081815260056020908152604080832094871680845294825291829020805460ff191686151590811790915591519182527f17307eab39ab6107e8899845ad3d59bd9653f200f220920489ca2b5937696c31910160405180910390a3505050565b6001600160a01b0383163b1561113857604051630a85bd0160e11b81526001600160a01b0384169063150b7a02906128ef903390889087908790600401613610565b6020604051808303816000875af192505050801561292a575060408051601f3d908101601f191682019092526129279181019061364d565b60015b612993573d808015612958576040519150601f19603f3d011682016040523d82523d6000602084013e61295d565b606091505b50805160000361298b57604051633250574960e11b81526001600160a01b0385166004820152602401610e6e565b805181602001fd5b6001600160e01b03198116630a85bd0160e11b146119ce57604051633250574960e11b81526001600160a01b0385166004820152602401610e6e565b606060006129dc83612be7565b600101905060008167ffffffffffffffff8111156129fc576129fc612f27565b6040519080825280601f01601f191660200182016040528015612a26576020820181803683370190505b5090508181016020015b600019016f181899199a1a9b1b9c1cb0b131b232b360811b600a86061a8153600a8504945084612a30575b509392505050565b610baf828260405180602001604052806000815250612cbf565b8080612a9157506001600160a01b03821615155b15612b53576000612aa184612565565b90506001600160a01b03831615801590612acd5750826001600160a01b0316816001600160a01b031614155b8015612ae05750612ade8184612291565b155b15612b095760405163a9fbf51f60e01b81526001600160a01b0384166004820152602401610e6e565b8115612b515783856001600160a01b0316826001600160a01b03167f8c5be1e5ebec7d5bd14f71427d1e84f3dd0314c0f7b2291e5b200ac8c7c3b92560405160405180910390a45b505b5050600090815260046020526040902080546001600160a01b0319166001600160a01b0392909216919091179055565b612b8e838383612cd6565b611567576001600160a01b038316612bbc57604051637e27328960e01b815260048101829052602401610e6e565b60405163177e802f60e01b81526001600160a01b038316600482015260248101829052604401610e6e565b60008072184f03e93ff9f4daa797ed6e38ed64bf6a1f0160401b8310612c265772184f03e93ff9f4daa797ed6e38ed64bf6a1f0160401b830492506040015b6d04ee2d6d415b85acef81000000008310612c52576d04ee2d6d415b85acef8100000000830492506020015b662386f26fc100008310612c7057662386f26fc10000830492506010015b6305f5e1008310612c88576305f5e100830492506008015b6127108310612c9c57612710830492506004015b60648310612cae576064830492506002015b600a8310610ae35760010192915050565b612cc98383612d3c565b61156760008484846128ad565b60006001600160a01b03831615801590612d345750826001600160a01b0316846001600160a01b03161480612d105750612d108484612291565b80612d3457506000828152600460205260409020546001600160a01b038481169116145b949350505050565b6001600160a01b038216612d6657604051633250574960e11b815260006004820152602401610e6e565b6000612d74838360006125d8565b90506001600160a01b03811615611567576040516339e3563760e11b815260006004820152602401610e6e565b6001600160e01b03198116811461256257600080fd5b600060208284031215612dc957600080fd5b813561224281612da1565b60005b83811015612def578181015183820152602001612dd7565b50506000910152565b60008151808452612e10816020860160208601612dd4565b601f01601f19169290920160200192915050565b6020815260006122426020830184612df8565b600060208284031215612e4957600080fd5b5035919050565b80356001600160a01b0381168114612e6757600080fd5b919050565b60008060408385031215612e7f57600080fd5b612e8883612e50565b946020939093013593505050565b6001600160a01b038b16815261014060208201819052600090612ebb9083018c612df8565b8281036040840152612ecd818c612df8565b90508281036060840152612ee1818b612df8565b90508281036080840152612ef5818a612df8565b60a0840198909852505060c081019490945260e084019290925261010083015215156101209091015295945050505050565b634e487b7160e01b600052604160045260246000fd5b60008067ffffffffffffffff841115612f5857612f58612f27565b50604051601f19601f85018116603f0116810181811067ffffffffffffffff82111715612f8757612f87612f27565b604052838152905080828401851015612f9f57600080fd5b83836020830137600060208583010152509392505050565b600082601f830112612fc857600080fd5b61224283833560208501612f3d565b80358015158114612e6757600080fd5b60008060008060008060008060008060006101608c8e03121561300957600080fd5b8b3567ffffffffffffffff81111561302057600080fd5b61302c8e828f01612fb7565b9b505060208c013567ffffffffffffffff81111561304957600080fd5b6130558e828f01612fb7565b9a505060408c013567ffffffffffffffff81111561307257600080fd5b61307e8e828f01612fb7565b99505060608c013567ffffffffffffffff81111561309b57600080fd5b6130a78e828f01612fb7565b98505060808c0135965060a08c0135955060c08c013594506130cb60e08d01612fd7565b93506130da6101008d01612fd7565b9a9d999c50979a969995989497509295919493610120830135935061014090920135919050565b60008060006060848603121561311657600080fd5b61311f84612e50565b925061312d60208501612e50565b929592945050506040919091013590565b6000806040838503121561315157600080fd5b50508035926020909101359150565b60006020828403121561317257600080fd5b61224282612e50565b602081526131956020820183516001600160a01b03169052565b6000602083015161014060408401526131b2610160840182612df8565b90506040840151601f198483030160608501526131cf8282612df8565b9150506060840151601f198483030160808501526131ed8282612df8565b9150506080840151601f198483030160a085015261320b8282612df8565b91505060a084015160c084015260c084015160e084015260e0840151610100840152610100840151610120840152610120840151612a5b61014085018215159052565b6000806040838503121561326157600080fd5b61326a83612e50565b915061327860208401612fd7565b90509250929050565b6000806000806080858703121561329757600080fd5b6132a085612e50565b93506132ae60208601612e50565b925060408501359150606085013567ffffffffffffffff8111156132d157600080fd5b8501601f810187136132e257600080fd5b6132f187823560208401612f3d565b91505092959194509250565b6000806040838503121561331057600080fd5b61331983612e50565b915061327860208401612e50565b6000806040838503121561333a57600080fd5b82359150602083013560ff8116811461335257600080fd5b809150509250929050565b600181811c9082168061337157607f821691505b60208210810361339157634e487b7160e01b600052602260045260246000fd5b50919050565b634e487b7160e01b600052601160045260246000fd5b6000600182016133bf576133bf613397565b5060010190565b601f82111561156757806000526020600020601f840160051c810160208510156133ed5750805b601f840160051c820191505b818110156119ce57600081556001016133f9565b815167ffffffffffffffff81111561342757613427612f27565b61343b81613435845461335d565b846133c6565b6020601f82116001811461346f57600083156134575750848201515b600019600385901b1c1916600184901b1784556119ce565b600084815260208120601f198516915b8281101561349f578785015182556020948501946001909201910161347f565b50848210156134bd5786840151600019600387901b60f8161c191681555b50505050600190811b01905550565b60e0815260006134df60e083018a612df8565b82810360208401526134f1818a612df8565b905082810360408401526135058189612df8565b905082810360608401526135198188612df8565b6080840196909652505060a081019290925260c090910152949350505050565b8082028115828204841417610ae357610ae3613397565b6020808252600990820152682737ba1037bbb732b960b91b604082015260600190565b81810381811115610ae357610ae3613397565b80820180821115610ae357610ae3613397565b6000826135b657634e487b7160e01b600052601260045260246000fd5b500490565b6020808252600c908201526b105b1c9958591e481d5cd95960a21b604082015260600190565b600083516135f3818460208801612dd4565b835190830190613607818360208801612dd4565b01949350505050565b6001600160a01b038581168252841660208201526040810183905260806060820181905260009061364390830184612df8565b9695505050505050565b60006020828403121561365f57600080fd5b815161224281612da156fe411aee90354c51b1b04cd563fcab2617142a9d50da19232d888547c8a1b7fd8aa2646970667358221220a761ad05f6da4547aaca7857000a7e6977ab1c6b782191f364724fca1b96807864736f6c634300081c0033",
  "linkReferences": {},
  "deployedLinkReferences": {}
}